{
  "address": "0x3762546c6041Bb0F8E7DE7910599242c3711a28c",
  "abi": [
    {
      "inputs": [
        {
          "internalType": "address",
          "name": "_pointsAdmin",
          "type": "address"
        }
      ],
      "stateMutability": "nonpayable",
      "type": "constructor"
    },
    {
      "anonymous": false,
      "inputs": [
        {
          "indexed": true,
          "internalType": "uint24",
          "name": "fee",
          "type": "uint24"
        },
        {
          "indexed": true,
          "internalType": "int24",
          "name": "tickSpacing",
          "type": "int24"
        }
      ],
      "name": "FeeAmountEnabled",
      "type": "event"
    },
    {
      "anonymous": false,
      "inputs": [
        {
          "indexed": true,
          "internalType": "address",
          "name": "oldOwner",
          "type": "address"
        },
        {
          "indexed": true,
          "internalType": "address",
          "name": "newOwner",
          "type": "address"
        }
      ],
      "name": "OwnerChanged",
      "type": "event"
    },
    {
      "anonymous": false,
      "inputs": [
        {
          "indexed": true,
          "internalType": "address",
          "name": "token0",
          "type": "address"
        },
        {
          "indexed": true,
          "internalType": "address",
          "name": "token1",
          "type": "address"
        },
        {
          "indexed": true,
          "internalType": "uint24",
          "name": "fee",
          "type": "uint24"
        },
        {
          "indexed": false,
          "internalType": "int24",
          "name": "tickSpacing",
          "type": "int24"
        },
        {
          "indexed": false,
          "internalType": "address",
          "name": "pool",
          "type": "address"
        }
      ],
      "name": "PoolCreated",
      "type": "event"
    },
    {
      "inputs": [],
      "name": "admin",
      "outputs": [
        {
          "internalType": "address",
          "name": "",
          "type": "address"
        }
      ],
      "stateMutability": "view",
      "type": "function"
    },
    {
      "inputs": [
        {
          "internalType": "address",
          "name": "tokenA",
          "type": "address"
        },
        {
          "internalType": "address",
          "name": "tokenB",
          "type": "address"
        },
        {
          "internalType": "uint24",
          "name": "fee",
          "type": "uint24"
        }
      ],
      "name": "createPool",
      "outputs": [
        {
          "internalType": "address",
          "name": "pool",
          "type": "address"
        }
      ],
      "stateMutability": "nonpayable",
      "type": "function"
    },
    {
      "inputs": [
        {
          "internalType": "uint24",
          "name": "fee",
          "type": "uint24"
        },
        {
          "internalType": "int24",
          "name": "tickSpacing",
          "type": "int24"
        }
      ],
      "name": "enableFeeAmount",
      "outputs": [],
      "stateMutability": "nonpayable",
      "type": "function"
    },
    {
      "inputs": [
        {
          "internalType": "uint24",
          "name": "",
          "type": "uint24"
        }
      ],
      "name": "feeAmountTickSpacing",
      "outputs": [
        {
          "internalType": "int24",
          "name": "",
          "type": "int24"
        }
      ],
      "stateMutability": "view",
      "type": "function"
    },
    {
      "inputs": [
        {
          "internalType": "address",
          "name": "",
          "type": "address"
        },
        {
          "internalType": "address",
          "name": "",
          "type": "address"
        },
        {
          "internalType": "uint24",
          "name": "",
          "type": "uint24"
        }
      ],
      "name": "getPool",
      "outputs": [
        {
          "internalType": "address",
          "name": "",
          "type": "address"
        }
      ],
      "stateMutability": "view",
      "type": "function"
    },
    {
      "inputs": [],
      "name": "owner",
      "outputs": [
        {
          "internalType": "address",
          "name": "",
          "type": "address"
        }
      ],
      "stateMutability": "view",
      "type": "function"
    },
    {
      "inputs": [],
      "name": "parameters",
      "outputs": [
        {
          "internalType": "address",
          "name": "factory",
          "type": "address"
        },
        {
          "internalType": "address",
          "name": "token0",
          "type": "address"
        },
        {
          "internalType": "address",
          "name": "token1",
          "type": "address"
        },
        {
          "internalType": "uint24",
          "name": "fee",
          "type": "uint24"
        },
        {
          "internalType": "int24",
          "name": "tickSpacing",
          "type": "int24"
        }
      ],
      "stateMutability": "view",
      "type": "function"
    },
    {
      "inputs": [
        {
          "internalType": "address",
          "name": "_owner",
          "type": "address"
        }
      ],
      "name": "setOwner",
      "outputs": [],
      "stateMutability": "nonpayable",
      "type": "function"
    }
  ],
  "transactionHash": "0x03240781b1ba4c37fde0a8c119bdc17162998c3661c7b694930b3e4ecdc1dc1f",
  "args": [
    "0x2AcF0a024a4Fd16E3A0CDDdB32FC229759290a1e"
  ],
  "numDeployments": 1,
  "solcInputHash": "ee25356728f7d806722a8a993524a1dc",
  "bytecode": "0x60a060405234801561001057600080fd5b506040516161a83803806161a88339818101604052602081101561003357600080fd5b50513060601b60805260038054336001600160a01b03199182168117909255600480549091166001600160a01b0384161790556040516000907fb532073b38c83145e3e5135377a08bf9aab55bc0fd7c1179cd4fb995d2a5159c908290a36101f4600081815260056020527f526b19181003b5c873519ed63635fe97b1329efa2ea6c0dd27b500090f692847805462ffffff1916600a90811790915560405190929160008051602061618883398151915291a3610bb8600081815260056020527f920c3c101aeacc47298ad380e56bf5b36d68daf59bb11b6a0e451daf6a70b042805462ffffff1916603c90811790915560405190929160008051602061618883398151915291a3612710600081815260056020527f4b632c5a4ef6f776d7578f74fb35c8372275e5c1cfdfcda32b7cd51134d0fd7e805462ffffff191660c890811790915560405190929160008051602061618883398151915291a35060805160601c615fda6101ae600039806105a45250615fda6000f3fe60806040523480156200001157600080fd5b5060043610620000945760003560e01c80638a7c195f11620000635780638a7c195f14620001a75780638da5cb5b14620001d5578063a167129514620001df578063f851a440146200021e5762000094565b806313af403514620000995780631698ee8214620000c457806322afcccb146200011f57806389035730146200015b575b600080fd5b620000c260048036036020811015620000b157600080fd5b50356001600160a01b031662000228565b005b6200010360048036036060811015620000dc57600080fd5b5080356001600160a01b03908116916020810135909116906040013562ffffff166200029c565b604080516001600160a01b039092168252519081900360200190f35b62000144600480360360208110156200013757600080fd5b503562ffffff16620002c8565b6040805160029290920b8252519081900360200190f35b62000165620002dd565b604080516001600160a01b0396871681529486166020860152929094168383015262ffffff16606083015260029290920b608082015290519081900360a00190f35b620000c260048036036040811015620001bf57600080fd5b5062ffffff813516906020013560020b62000313565b62000103620003db565b6200010360048036036060811015620001f757600080fd5b5080356001600160a01b03908116916020810135909116906040013562ffffff16620003ea565b620001036200058a565b6003546001600160a01b031633146200024057600080fd5b6003546040516001600160a01b038084169216907fb532073b38c83145e3e5135377a08bf9aab55bc0fd7c1179cd4fb995d2a5159c90600090a3600380546001600160a01b0319166001600160a01b0392909216919091179055565b60066020908152600093845260408085208252928452828420905282529020546001600160a01b031681565b60056020526000908152604090205460020b81565b600054600154600280546001600160a01b03938416939283169281169162ffffff600160a01b83041691600160b81b9004900b85565b6003546001600160a01b031633146200032b57600080fd5b620f42408262ffffff16106200034057600080fd5b60008160020b1380156200035857506140008160020b125b6200036257600080fd5b62ffffff8216600090815260056020526040902054600290810b900b156200038957600080fd5b62ffffff828116600081815260056020526040808220805462ffffff1916600287900b958616179055517fc66a3fdf07232cdd185febcc6579d408c241b47ae2f9907d84be655141eeaecc9190a35050565b6003546001600160a01b031681565b6000620003f662000599565b826001600160a01b0316846001600160a01b031614156200041657600080fd5b600080846001600160a01b0316866001600160a01b0316106200043b5784866200043e565b85855b90925090506001600160a01b0382166200045757600080fd5b62ffffff8416600090815260056020526040902054600290810b9081900b6200047f57600080fd5b6001600160a01b0383811660009081526006602090815260408083208685168452825280832062ffffff8a1684529091529020541615620004bf57600080fd5b620004ce3084848885620005d1565b6001600160a01b03808516600081815260066020818152604080842089871680865290835281852062ffffff8e168087529084528286208054988a166001600160a01b0319998a1681179091558287529484528286208787528452828620818752845294829020805490971684179096558051600289900b815291820192909252815195995091947f783cca1c0412dd0d695e784568c96da2e9c22ff989357a2e8b1d9b2b4e6b71189281900390910190a45050509392505050565b6004546001600160a01b031681565b306001600160a01b037f00000000000000000000000000000000000000000000000000000000000000001614620005cf57600080fd5b565b6040805160a0810182526001600160a01b03878116808352878216602080850182905292881684860181905262ffffff888116606080880182905260028a810b6080998a01819052600080546001600160a01b03199081169099178155600180548a16891790558254909816861762ffffff60a01b1916600160a01b85021762ffffff60b81b1916600160b81b91830b9095160293909317909255875180870194909452838801929092528281019190915285518083039091018152930193849052825192909101919091209091620006aa906200071a565b8190604051809103906000f5905080158015620006cb573d6000803e3d6000fd5b50600080546001600160a01b0319908116909155600180549091169055600280547fffffffffffff00000000000000000000000000000000000000000000000000001690559695505050505050565b6158a580620007298339019056fe6101606040523480156200001257600080fd5b503060601b608052604051631a33757d60e01b815260009073430000000000000000000000000000000000000390631a33757d9060029060040180828152602001915050602060405180830381600087803b1580156200007157600080fd5b505af115801562000086573d6000803e3d6000fd5b505050506040513d60208110156200009d57600080fd5b5050604051631a33757d60e01b815273430000000000000000000000000000000000000490631a33757d9060029060040180828152602001915050602060405180830381600087803b158015620000f357600080fd5b505af115801562000108573d6000803e3d6000fd5b505050506040513d60208110156200011f57600080fd5b505060408051630890357360e41b81529051600091339163890357309160048082019260a092909190829003018186803b1580156200015d57600080fd5b505afa15801562000172573d6000803e3d6000fd5b505050506040513d60a08110156200018957600080fd5b50805160208201516040808401516060808601516080909601516001600160e81b031960e897881b16610100526001600160601b031992821b831660e05293811b821660c052600284810b900b90951b610120529383901b90931660a0528251634e606c4760e01b8152925190945090925073430000000000000000000000000000000000000291634e606c4791600480830192600092919082900301818387803b1580156200023857600080fd5b505af11580156200024d573d6000803e3d6000fd5b505050507343000000000000000000000000000000000000026001600160a01b031663eb864698826001600160a01b031663f851a4406040518163ffffffff1660e01b815260040160206040518083038186803b158015620002ae57600080fd5b505afa158015620002c3573d6000803e3d6000fd5b505050506040513d6020811015620002da57600080fd5b5051604080516001600160e01b031960e085901b1681526001600160a01b03909216600483015251602480830192600092919082900301818387803b1580156200032357600080fd5b505af115801562000338573d6000803e3d6000fd5b50505050732536fe9ab3f511540f2f9e2ec2a805005c3dd8006001600160a01b03166336b91f2b826001600160a01b031663f851a4406040518163ffffffff1660e01b815260040160206040518083038186803b1580156200039957600080fd5b505afa158015620003ae573d6000803e3d6000fd5b505050506040513d6020811015620003c557600080fd5b5051604080516001600160e01b031960e085901b1681526001600160a01b03909216600483015251602480830192600092919082900301818387803b1580156200040e57600080fd5b505af115801562000423573d6000803e3d6000fd5b505050506200043d826200045760201b6200315f1760201c565b60801b6001600160801b0319166101405250620004c59050565b60008082600281900b620d89e719816200046d57fe5b05029050600083600281900b620d89e8816200048557fe5b0502905060008460020b83830360020b816200049d57fe5b0560010190508062ffffff166001600160801b03801681620004bb57fe5b0495945050505050565b60805160601c60a05160601c60c05160601c60e05160601c6101005160e81c6101205160e81c6101405160801c6152eb620005ba600039806122a2528061469e52806146d5525080610bf85280612e225280614709528061473b525080610d5c5280611c7f5280611cb65280612e6a5250806113ef5280611d3952806121a852806126dd5280612e465280613a8b52806147b5528061492352806149a05280614b0e5250806108ca528061151d5280611d08528061214252806126575280613942528061477c52806148e252806149675280614acd52508061232f52806125165280612dfe5250806131d652506152eb6000f3fe608060405234801561001057600080fd5b50600436106101ae5760003560e01c806370cf754a116100ee578063c45a015511610097578063ddca3f4311610071578063ddca3f43146107f8578063f305839914610818578063f30dba9314610820578063f637731d146108a2576101ae565b8063c45a0155146107c9578063d0c93a7c146107d1578063d21220a7146107f0576101ae565b8063883bdbfd116100c8578063883bdbfd1461062d578063a34123a714610734578063a38807f21461076e576101ae565b806370cf754a146105c05780638206a4d1146105c857806385b66729146105f0576101ae565b80633850c7bd1161015b578063490e6cbc11610135578063490e6cbc1461046c5780634f1eb3d8146104f6578063514ea4bf146105475780635339c296146105a0576101ae565b80633850c7bd146103595780633c8a7d8d146103b25780634614131914610452576101ae565b80631ad8b03b1161018c5780631ad8b03b146102a8578063252c09d7146102df57806332148f6714610336576101ae565b80630dfe1681146101b3578063128acb08146101d75780631a68650214610284575b600080fd5b6101bb6108c8565b604080516001600160a01b039092168252519081900360200190f35b61026b600480360360a08110156101ed57600080fd5b6001600160a01b0382358116926020810135151592604082013592606083013516919081019060a081016080820135600160201b81111561022d57600080fd5b82018360208201111561023f57600080fd5b803590602001918460018302840111600160201b8311171561026057600080fd5b5090925090506108ec565b6040805192835260208301919091528051918290030190f35b61028c6116d5565b604080516001600160801b039092168252519081900360200190f35b6102b06116e4565b60405180836001600160801b03168152602001826001600160801b031681526020019250505060405180910390f35b6102fc600480360360208110156102f557600080fd5b50356116fe565b6040805163ffffffff909516855260069390930b60208501526001600160a01b039091168383015215156060830152519081900360800190f35b6103576004803603602081101561034c57600080fd5b503561ffff1661174b565b005b6103616118ca565b604080516001600160a01b03909816885260029690960b602088015261ffff9485168787015292841660608701529216608085015260ff90911660a0840152151560c0830152519081900360e00190f35b61026b600480360360a08110156103c857600080fd5b6001600160a01b03823516916020810135600290810b92604083013590910b916001600160801b036060820135169181019060a081016080820135600160201b81111561041457600080fd5b82018360208201111561042657600080fd5b803590602001918460018302840111600160201b8311171561044757600080fd5b50909250905061191a565b61045a611bd6565b60408051918252519081900360200190f35b6103576004803603608081101561048257600080fd5b6001600160a01b038235169160208101359160408201359190810190608081016060820135600160201b8111156104b857600080fd5b8201836020820111156104ca57600080fd5b803590602001918460018302840111600160201b831117156104eb57600080fd5b509092509050611bdc565b6102b0600480360360a081101561050c57600080fd5b506001600160a01b03813516906020810135600290810b91604081013590910b906001600160801b0360608201358116916080013516612037565b6105646004803603602081101561055d57600080fd5b5035612251565b604080516001600160801b0396871681526020810195909552848101939093529084166060840152909216608082015290519081900360a00190f35b61045a600480360360208110156105b657600080fd5b503560010b61228e565b61028c6122a0565b610357600480360360408110156105de57600080fd5b5060ff813581169160200135166122c4565b6102b06004803603606081101561060657600080fd5b506001600160a01b03813516906001600160801b03602082013581169160400135166124a8565b61069b6004803603602081101561064357600080fd5b810190602081018135600160201b81111561065d57600080fd5b82018360208201111561066f57600080fd5b803590602001918460208302840111600160201b8311171561069057600080fd5b509092509050612775565b604051808060200180602001838103835285818151815260200191508051906020019060200280838360005b838110156106df5781810151838201526020016106c7565b50505050905001838103825284818151815260200191508051906020019060200280838360005b8381101561071e578181015183820152602001610706565b5050505090500194505050505060405180910390f35b61026b6004803603606081101561074a57600080fd5b508035600290810b91602081013590910b90604001356001600160801b03166129ed565b6107986004803603604081101561078457600080fd5b508035600290810b9160200135900b612b64565b6040805160069490940b84526001600160a01b03909216602084015263ffffffff1682820152519081900360600190f35b6101bb612dfc565b6107d9612e20565b6040805160029290920b8252519081900360200190f35b6101bb612e44565b610800612e68565b6040805162ffffff9092168252519081900360200190f35b61045a612e8c565b6108406004803603602081101561083657600080fd5b503560020b612e92565b604080516001600160801b039099168952600f9790970b602089015287870195909552606087019390935260069190910b60808601526001600160a01b031660a085015263ffffffff1660c0840152151560e083015251908190036101000190f35b610357600480360360208110156108b857600080fd5b50356001600160a01b0316612efc565b7f000000000000000000000000000000000000000000000000000000000000000081565b6000806108f76131cb565b8561092e576040805162461bcd60e51b8152602060048201526002602482015261415360f01b604482015290519081900360640190fd5b6040805160e0810182526000546001600160a01b0381168252600160a01b8104600290810b810b900b602083015261ffff600160b81b8204811693830193909352600160c81b810483166060830152600160d81b8104909216608082015260ff600160e81b8304811660a0830152600160f01b909204909116151560c082018190526109e7576040805162461bcd60e51b81526020600482015260036024820152624c4f4b60e81b604482015290519081900360640190fd5b87610a325780600001516001600160a01b0316866001600160a01b0316118015610a2d575073fffd8963efd1fc6a506488495d951d5263988d266001600160a01b038716105b610a64565b80600001516001600160a01b0316866001600160a01b0316108015610a6457506401000276a36001600160a01b038716115b610a9b576040805162461bcd60e51b815260206004820152600360248201526214d41360ea1b604482015290519081900360640190fd5b6000805460ff60f01b191681556040805160c08101909152808a610aca5760048460a0015160ff16901c610add565b60108460a0015160ff1681610adb57fe5b065b60ff1681526004546001600160801b03166020820152604001610afe613202565b63ffffffff168152602001600060060b815260200160006001600160a01b031681526020016000151581525090506000808913905060006040518060e001604052808b81526020016000815260200185600001516001600160a01b03168152602001856020015160020b81526020018c610b7a57600254610b7e565b6001545b815260200160006001600160801b0316815260200184602001516001600160801b031681525090505b805115801590610bcd5750886001600160a01b031681604001516001600160a01b031614155b1561112a57610bda6152a2565b60408201516001600160a01b031681526060820151610c1d906006907f00000000000000000000000000000000000000000000000000000000000000008f613206565b15156040830152600290810b810b60208301819052620d89e719910b1215610c4e57620d89e7196020820152610c6d565b6020810151620d89e860029190910b1315610c6d57620d89e860208201525b739abB90cB144d5F83EB9936c592E2526F1DCEBA0463986cfba382602001516040518263ffffffff1660e01b8152600401808260020b815260200191505060206040518083038186803b158015610cc357600080fd5b505af4158015610cd7573d6000803e3d6000fd5b505050506040513d6020811015610ced57600080fd5b50516001600160a01b031660608201526040820151610d80908d610d29578b6001600160a01b031683606001516001600160a01b031611610d43565b8b6001600160a01b031683606001516001600160a01b0316105b610d51578260600151610d53565b8b5b60c085015185517f0000000000000000000000000000000000000000000000000000000000000000613348565b60c085015260a084015260808301526001600160a01b031660408301528215610de257610db68160c0015182608001510161353a565b825103825260a0810151610dd890610dcd9061353a565b602084015190613550565b6020830152610e1d565b610def8160a0015161353a565b825101825260c08101516080820151610e1791610e0c910161353a565b60208401519061356c565b60208301525b835160ff1615610e63576000846000015160ff168260c0015181610e3d57fe5b60c0840180519290910491829003905260a0840180519091016001600160801b03169052505b60c08201516001600160801b031615610ea257610e968160c00151600160801b8460c001516001600160801b0316613582565b60808301805190910190525b80606001516001600160a01b031682604001516001600160a01b0316141561106e57806040015115611045578360a00151610fcf57604080850151602080880151888401519188015160608a01518551639a7fc61560e01b81526008600482015263ffffffff90951660248601526000604486015260029290920b606485015261ffff92831660848501526001600160801b031660a48401521660c4820152815173509a04665062c08f74928c3d2C3039628677c61B92639a7fc6159260e48082019391829003018186803b158015610f7a57600080fd5b505af4158015610f8e573d6000803e3d6000fd5b505050506040513d6040811015610fa457600080fd5b5080516020909101516001600160a01b03166080860152600690810b900b6060850152600160a08501525b600061101b82602001518e610fe657600154610fec565b84608001515b8f610ffb578560800151610fff565b6002545b608089015160608a015160408b01516005959493929190613632565b90508c15611027576000035b6110358360c00151826136f0565b6001600160801b031660c0840152505b8b61105457806020015161105d565b60018160200151035b600290810b900b6060830152611124565b80600001516001600160a01b031682604001516001600160a01b03161461112457739abB90cB144d5F83EB9936c592E2526F1DCEBA04634f76c05883604001516040518263ffffffff1660e01b815260040180826001600160a01b0316815260200191505060206040518083038186803b1580156110eb57600080fd5b505af41580156110ff573d6000803e3d6000fd5b505050506040513d602081101561111557600080fd5b5051600290810b900b60608301525b50610ba7565b836020015160020b816060015160020b146112af57600080600873509a04665062c08f74928c3d2C3039628677c61B63ab329c239091886040015188604001518a602001518a602001518c606001518d608001516040518863ffffffff1660e01b8152600401808881526020018761ffff1681526020018663ffffffff1681526020018560020b8152602001846001600160801b031681526020018361ffff1681526020018261ffff168152602001975050505050505050604080518083038186803b1580156111f957600080fd5b505af415801561120d573d6000803e3d6000fd5b505050506040513d604081101561122357600080fd5b508051602090910151604085015160608601516000805461ffff60c81b1916600160c81b61ffff958616021761ffff60b81b1916600160b81b94909516939093029390931762ffffff60a01b1916600160a01b62ffffff60029590950b9490941693909302929092176001600160a01b0319166001600160a01b03909216919091179055506112d49050565b6040810151600080546001600160a01b0319166001600160a01b039092169190911790555b8060c001516001600160801b031683602001516001600160801b03161461131a5760c0810151600480546001600160801b0319166001600160801b039092169190911790555b8a1561136a57608081015160015560a08101516001600160801b0316156113655760a0810151600380546001600160801b031981166001600160801b03918216909301169190911790555b6113b0565b608081015160025560a08101516001600160801b0316156113b05760a0810151600380546001600160801b03808216600160801b92839004821690940116029190911790555b8115158b1515146113c957602081015181518b036113d6565b80600001518a0381602001515b90965094508a1561150f576000851215611418576114187f00000000000000000000000000000000000000000000000000000000000000008d876000036137a6565b60006114226138f4565b9050336001600160a01b031663e8d917fe88888c8c6040518563ffffffff1660e01b815260040180858152602001848152602001806020018281038252848482818152602001925080828437600081840152601f19601f82011690508083019250505095505050505050600060405180830381600087803b1580156114a657600080fd5b505af11580156114ba573d6000803e3d6000fd5b505050506114c66138f4565b6114d08289613a2d565b1115611509576040805162461bcd60e51b815260206004820152600360248201526249494160e81b604482015290519081900360640190fd5b50611639565b6000861215611546576115467f00000000000000000000000000000000000000000000000000000000000000008d886000036137a6565b6000611550613a3d565b9050336001600160a01b031663e8d917fe88888c8c6040518563ffffffff1660e01b815260040180858152602001848152602001806020018281038252848482818152602001925080828437600081840152601f19601f82011690508083019250505095505050505050600060405180830381600087803b1580156115d457600080fd5b505af11580156115e8573d6000803e3d6000fd5b505050506115f4613a3d565b6115fe8288613a2d565b1115611637576040805162461bcd60e51b815260206004820152600360248201526249494160e81b604482015290519081900360640190fd5b505b60408082015160c083015160608085015184518b8152602081018b90526001600160a01b03948516818701526001600160801b039093169183019190915260020b60808201529151908e169133917fc42079f94a6350d7e6235f29174924f928cc2ac818eb64fed8004e115fbcca679181900360a00190a350506000805460ff60f01b1916600160f01b17905550919890975095505050505050565b6004546001600160801b031681565b6003546001600160801b0380821691600160801b90041682565b60088161ffff811061170f57600080fd5b015463ffffffff81169150600160201b810460060b906b01000000000000000000000081046001600160a01b031690600160f81b900460ff1684565b600054600160f01b900460ff1661178f576040805162461bcd60e51b81526020600482015260036024820152624c4f4b60e81b604482015290519081900360640190fd5b6000805460ff60f01b191690556117a46131cb565b60008054604080516398cdb26160e01b81526008600482015261ffff600160d81b9093048316602482018190529285166044820152905191929173509a04665062c08f74928c3d2C3039628677c61B916398cdb261916064808301926020929190829003018186803b15801561181957600080fd5b505af415801561182d573d6000803e3d6000fd5b505050506040513d602081101561184357600080fd5b50516000805461ffff808416600160d81b810261ffff60d81b19909316929092179092559192508316146118b2576040805161ffff80851682528316602082015281517fac49e518f90a358f652e4400164f05a5d8f7e35e7747279bc3a93dbf584e125a929181900390910190a15b50506000805460ff60f01b1916600160f01b17905550565b6000546001600160a01b03811690600160a01b810460020b9061ffff600160b81b8204811691600160c81b8104821691600160d81b8204169060ff600160e81b8204811691600160f01b90041687565b600080548190600160f01b900460ff16611961576040805162461bcd60e51b81526020600482015260036024820152624c4f4b60e81b604482015290519081900360640190fd5b6000805460ff60f01b191690556001600160801b03851661198157600080fd5b6000806119cf60405180608001604052808c6001600160a01b031681526020018b60020b81526020018a60020b81526020016119c58a6001600160801b0316613ad5565b600f0b9052613ae6565b925092505081935080925060008060008611156119f1576119ee6138f4565b91505b8415611a02576119ff613a3d565b90505b336001600160a01b031663a148889887878b8b6040518563ffffffff1660e01b815260040180858152602001848152602001806020018281038252848482818152602001925080828437600081840152601f19601f82011690508083019250505095505050505050600060405180830381600087803b158015611a8457600080fd5b505af1158015611a98573d6000803e3d6000fd5b505050506000861115611aef57611aad6138f4565b611ab78388613a2d565b1115611aef576040805162461bcd60e51b815260206004820152600260248201526104d360f41b604482015290519081900360640190fd5b8415611b3f57611afd613a3d565b611b078287613a2d565b1115611b3f576040805162461bcd60e51b81526020600482015260026024820152614d3160f01b604482015290519081900360640190fd5b8960020b8b60020b8d6001600160a01b03167f7a53080ba414158be7ec69b987b5fb7d07dee101fe85488f0853ae16239d0bde338d8b8b60405180856001600160a01b03168152602001846001600160801b0316815260200183815260200182815260200194505050505060405180910390a450506000805460ff60f01b1916600160f01b17905550919890975095505050505050565b60025481565b600054600160f01b900460ff16611c20576040805162461bcd60e51b81526020600482015260036024820152624c4f4b60e81b604482015290519081900360640190fd5b6000805460ff60f01b19169055611c356131cb565b6004546001600160801b031680611c77576040805162461bcd60e51b81526020600482015260016024820152601360fa1b604482015290519081900360640190fd5b6000611cac867f000000000000000000000000000000000000000000000000000000000000000062ffffff16620f42406140a9565b90506000611ce3867f000000000000000000000000000000000000000000000000000000000000000062ffffff16620f42406140a9565b90506000611cef6138f4565b90506000611cfb613a3d565b90508815611d2e57611d2e7f00000000000000000000000000000000000000000000000000000000000000008b8b6137a6565b8715611d5f57611d5f7f00000000000000000000000000000000000000000000000000000000000000008b8a6137a6565b336001600160a01b031663a8aa99fd85858a8a6040518563ffffffff1660e01b815260040180858152602001848152602001806020018281038252848482818152602001925080828437600081840152601f19601f82011690508083019250505095505050505050600060405180830381600087803b158015611de157600080fd5b505af1158015611df5573d6000803e3d6000fd5b505050506000611e036138f4565b90506000611e0f613a3d565b905081611e1c8588613a2d565b1115611e54576040805162461bcd60e51b8152602060048201526002602482015261046360f41b604482015290519081900360640190fd5b80611e5f8487613a2d565b1115611e97576040805162461bcd60e51b8152602060048201526002602482015261463160f01b604482015290519081900360640190fd5b8382038382038115611f265760008054600160e81b9004600f16908115611eca578160ff168481611ec457fe5b04611ecd565b60005b90506001600160801b03811615611f0057600380546001600160801b038082168401166001600160801b03199091161790555b611f1a818503600160801b8d6001600160801b0316613582565b60018054909101905550505b8015611fb15760008054600160e81b900460041c600f16908115611f56578160ff168381611f5057fe5b04611f59565b60005b90506001600160801b03811615611f8b57600380546001600160801b03600160801b8083048216850182160291161790555b611fa5818403600160801b8d6001600160801b0316613582565b60028054909101905550505b8d6001600160a01b0316336001600160a01b03167fbdbdb71d7860376ba52b25a5028beea23581364a40522f6bcfb86bb1f2dca6338f8f86866040518085815260200184815260200183815260200182815260200194505050505060405180910390a350506000805460ff60f01b1916600160f01b179055505050505050505050505050565b600080548190600160f01b900460ff1661207e576040805162461bcd60e51b81526020600482015260036024820152624c4f4b60e81b604482015290519081900360640190fd5b6000805460ff60f01b1916815561209860073389896140e3565b60038101549091506001600160801b03908116908616116120b957846120c8565b60038101546001600160801b03165b60038201549093506001600160801b03600160801b9091048116908516116120f05783612106565b6003810154600160801b90046001600160801b03165b91506001600160801b0383161561216b576003810180546001600160801b031981166001600160801b0391821686900382161790915561216b907f0000000000000000000000000000000000000000000000000000000000000000908a9086166137a6565b6001600160801b038216156121d1576003810180546001600160801b03600160801b8083048216869003821602918116919091179091556121d1907f0000000000000000000000000000000000000000000000000000000000000000908a9085166137a6565b604080516001600160a01b038a1681526001600160801b0380861660208301528416818301529051600288810b92908a900b9133917f70935338e69775456a85ddef226c395fb668b63fa0115f5f20610b388e6ca9c0919081900360600190a4506000805460ff60f01b1916600160f01b17905590969095509350505050565b60076020526000908152604090208054600182015460028301546003909301546001600160801b0392831693919281811691600160801b90041685565b60066020526000908152604090205481565b7f000000000000000000000000000000000000000000000000000000000000000081565b600054600160f01b900460ff16612308576040805162461bcd60e51b81526020600482015260036024820152624c4f4b60e81b604482015290519081900360640190fd5b6000805460ff60f01b1916905560408051638da5cb5b60e01b815290516001600160a01b037f00000000000000000000000000000000000000000000000000000000000000001691638da5cb5b916004808301926020929190829003018186803b15801561237557600080fd5b505afa158015612389573d6000803e3d6000fd5b505050506040513d602081101561239f57600080fd5b50516001600160a01b031633146123b557600080fd5b60ff821615806123d8575060048260ff16101580156123d85750600a8260ff1611155b8015612402575060ff81161580612402575060048160ff16101580156124025750600a8160ff1611155b61240b57600080fd5b60008054610ff0600484901b16840160ff908116600160e81b90810260ff60e81b19841617909355919004167f973d8d92bb299f4af6ce49b52a8adb85ae46b9f214c4c4fc06ac77401237b1336010826040805160ff9390920683168252600f600486901c16602083015286831682820152918516606082015290519081900360800190a150506000805460ff60f01b1916600160f01b17905550565b600080548190600160f01b900460ff166124ef576040805162461bcd60e51b81526020600482015260036024820152624c4f4b60e81b604482015290519081900360640190fd5b6000805460ff60f01b1916905560408051638da5cb5b60e01b815290516001600160a01b037f00000000000000000000000000000000000000000000000000000000000000001691638da5cb5b916004808301926020929190829003018186803b15801561255c57600080fd5b505afa158015612570573d6000803e3d6000fd5b505050506040513d602081101561258657600080fd5b50516001600160a01b0316331461259c57600080fd5b6003546001600160801b03908116908516116125b857836125c5565b6003546001600160801b03165b6003549092506001600160801b03600160801b9091048116908416116125eb57826125ff565b600354600160801b90046001600160801b03165b90506001600160801b03821615612680576003546001600160801b038381169116141561262e57600019909101905b600380546001600160801b031981166001600160801b03918216859003821617909155612680907f000000000000000000000000000000000000000000000000000000000000000090879085166137a6565b6001600160801b03811615612706576003546001600160801b03828116600160801b9092041614156126b157600019015b600380546001600160801b03600160801b808304821685900382160291811691909117909155612706907f000000000000000000000000000000000000000000000000000000000000000090879084166137a6565b604080516001600160801b0380851682528316602082015281516001600160a01b0388169233927f596b573906218d3411850b26a6b437d6c4522fdb43d2d2386263f86d50b8b151929081900390910190a36000805460ff60f01b1916600160f01b1790559094909350915050565b6060806127806131cb565b73509a04665062c08f74928c3d2C3039628677c61B637b7513c160086127a4613202565b6000546004805460405160e087811b7fffffffff0000000000000000000000000000000000000000000000000000000016825292810186815263ffffffff86166024830152600160a01b8504600290810b9081900b6064840152600160b81b860461ffff908116608485018190526001600160801b0390951660a48501819052600160c81b9097041660c484018190526044840195865260e484018e90528e968e96929594909391929061010401886020890280828437600081840152601f19601f820116905080830192505050995050505050505050505060006040518083038186803b15801561289557600080fd5b505af41580156128a9573d6000803e3d6000fd5b505050506040513d6000823e601f3d908101601f1916820160409081528110156128d257600080fd5b8101908080516040519392919084600160201b8211156128f157600080fd5b90830190602082018581111561290657600080fd5b82518660208202830111600160201b8211171561292257600080fd5b82525081516020918201928201910280838360005b8381101561294f578181015183820152602001612937565b5050505090500160405260200180516040519392919084600160201b82111561297757600080fd5b90830190602082018581111561298c57600080fd5b82518660208202830111600160201b821117156129a857600080fd5b82525081516020918201928201910280838360005b838110156129d55781810151838201526020016129bd565b50505050905001604052505050915091509250929050565b600080548190600160f01b900460ff16612a34576040805162461bcd60e51b81526020600482015260036024820152624c4f4b60e81b604482015290519081900360640190fd5b6000805460ff60f01b1916815560408051608081018252338152600288810b602083015287900b9181019190915281908190612a8d9060608101612a806001600160801b038a16613ad5565b600003600f0b9052613ae6565b9250925092508160000394508060000393506000851180612aae5750600084115b15612aed576003830180546001600160801b038082168089018216600160801b93849004831689019092169092029091176001600160801b0319161790555b604080516001600160801b0388168152602081018790528082018690529051600289810b92908b900b9133917f0c396cd989a39f4459b5fa1aed6a9a8dcdbc45908acfd67e028cd568da98982c919081900360600190a450506000805460ff60f01b1916600160f01b179055509094909350915050565b6000806000612b716131cb565b612b7b8585614147565b600285810b810b60009081526005602052604080822087840b90930b825281206003830154600681900b93600160381b82046001600160a01b0316928492600160d81b810463ffffffff169284929091600160f81b900460ff1680612bdf57600080fd5b6003820154600681900b9850600160381b81046001600160a01b03169650600160d81b810463ffffffff169450600160f81b900460ff1680612c2057600080fd5b50506040805160e0810182526000546001600160a01b0381168252600160a01b8104600290810b810b810b6020840181905261ffff600160b81b8404811695850195909552600160c81b830485166060850152600160d81b8304909416608084015260ff600160e81b8304811660a0850152600160f01b909204909116151560c08301529093508e810b91900b12159050612cc957509390940396509003935090039050612df5565b8a60020b816020015160020b1215612de6576000612ce5613202565b60208301516040808501516004805460608801518451639a7fc61560e01b815260089381019390935263ffffffff8716602484015260006044840181905260029690960b606484015261ffff93841660848401526001600160801b0390911660a48301529190911660c482015281519394509192839273509a04665062c08f74928c3d2C3039628677c61B92639a7fc6159260e480840193829003018186803b158015612d9157600080fd5b505af4158015612da5573d6000803e3d6000fd5b505050506040513d6040811015612dbb57600080fd5b5080516020909101519a9003989098039b505094909603929092039650909103039250612df5915050565b50949093039650039350900390505b9250925092565b7f000000000000000000000000000000000000000000000000000000000000000081565b7f000000000000000000000000000000000000000000000000000000000000000081565b7f000000000000000000000000000000000000000000000000000000000000000081565b7f000000000000000000000000000000000000000000000000000000000000000081565b60015481565b60056020526000908152604090208054600182015460028301546003909301546001600160801b03831693600160801b909304600f0b9290600681900b90600160381b81046001600160a01b031690600160d81b810463ffffffff1690600160f81b900460ff1688565b6000546001600160a01b031615612f3f576040805162461bcd60e51b8152602060048201526002602482015261414960f01b604482015290519081900360640190fd5b6000739abB90cB144d5F83EB9936c592E2526F1DCEBA04634f76c058836040518263ffffffff1660e01b815260040180826001600160a01b0316815260200191505060206040518083038186803b158015612f9957600080fd5b505af4158015612fad573d6000803e3d6000fd5b505050506040513d6020811015612fc357600080fd5b5051905060008073509a04665062c08f74928c3d2C3039628677c61B63a0eff3f76008612fee613202565b6040518363ffffffff1660e01b8152600401808381526020018263ffffffff16815260200192505050604080518083038186803b15801561302e57600080fd5b505af4158015613042573d6000803e3d6000fd5b505050506040513d604081101561305857600080fd5b5080516020918201516040805160e0810182526001600160a01b038916808252600289810b838801819052600084860181905261ffff808916606087018190529088166080870181905260a08701839052600160c090970196909652815461ffff60e81b19600160d81b90970261ffff60d81b19600160c81b90930263ffffffff60b81b199686900b62ffffff16600160a01b0262ffffff60a01b196001600160a01b0319909416891793909316929092179590951617169290921793909316600160f01b17905582519081529485015280519295509093507f98636036cb66a9c19a37435efc1e90142190214e8abeb821bdba3f2990dd4c95928290030190a150505050565b60008082600281900b620d89e7198161317457fe5b05029050600083600281900b620d89e88161318b57fe5b0502905060008460020b83830360020b816131a257fe5b0560010190508062ffffff166001600160801b038016816131bf57fe5b0493505050505b919050565b306001600160a01b037f0000000000000000000000000000000000000000000000000000000000000000161461320057600080fd5b565b4290565b60008060008460020b8660020b8161321a57fe5b05905060008660020b12801561324157508460020b8660020b8161323a57fe5b0760020b15155b1561324b57600019015b83156132c05760008061325d83614210565b600182810b810b600090815260208d9052604090205460ff83169190911b800160001901908116801515975092945090925090856132a257888360ff168603026132b5565b886132ac82614222565b840360ff168603025b96505050505061333e565b6000806132cf83600101614210565b91509150600060018260ff166001901b031990506000818b60008660010b60010b815260200190815260200160002054169050806000141595508561332157888360ff0360ff16866001010102613337565b888361332c836142c1565b0360ff168660010101025b9650505050505b5094509492505050565b60008080806001600160a01b03808916908a1610158187128015906133cd5760006133818989620f42400362ffffff16620f4240613582565b90508261339a576133958c8c8c60016143ab565b6133a7565b6133a78b8d8c6001614426565b95508581106133b8578a96506133c7565b6133c48c8b83866144da565b96505b50613417565b816133e4576133df8b8b8b6000614426565b6133f1565b6133f18a8c8b60006143ab565b935083886000031061340557899550613417565b6134148b8a8a60000385614526565b95505b6001600160a01b038a811690871614821561347a578080156134365750815b61344c57613447878d8c6001614426565b61344e565b855b955080801561345b575081155b6134715761346c878d8c60006143ab565b613473565b845b94506134c4565b8080156134845750815b61349a576134958c888c60016143ab565b61349c565b855b95508080156134a9575081155b6134bf576134ba8c888c6000614426565b6134c1565b845b94505b811580156134d457508860000385115b156134e0578860000394505b8180156134ff57508a6001600160a01b0316876001600160a01b031614155b1561350e57858903935061352b565b613528868962ffffff168a620f42400362ffffff166140a9565b93505b50505095509550955095915050565b6000600160ff1b821061354c57600080fd5b5090565b8082038281131560008312151461356657600080fd5b92915050565b8181018281121560008312151461356657600080fd5b60008080600019858709868602925082811090839003039050806135b857600084116135ad57600080fd5b50829004905061362b565b8084116135c457600080fd5b6000848688096000868103871696879004966002600389028118808a02820302808a02820302808a02820302808a02820302808a02820302808a02909103029181900381900460010186841190950394909402919094039290920491909117919091029150505b9392505050565b600295860b860b60009081526020979097526040909620600181018054909503909455938301805490920390915560038201805463ffffffff600160d81b6001600160a01b03600160381b808504821690960316909402670100000000000000600160d81b031990921691909117600681810b90960390950b66ffffffffffffff1666ffffffffffffff199095169490941782810485169095039093160263ffffffff60d81b1990931692909217905554600160801b9004600f0b90565b60008082600f0b121561375557826001600160801b03168260000384039150816001600160801b031610613750576040805162461bcd60e51b81526020600482015260026024820152614c5360f01b604482015290519081900360640190fd5b613566565b826001600160801b03168284019150816001600160801b03161015613566576040805162461bcd60e51b81526020600482015260026024820152614c4160f01b604482015290519081900360640190fd5b604080516001600160a01b038481166024830152604480830185905283518084039091018152606490920183526020820180516001600160e01b031663a9059cbb60e01b1781529251825160009485949389169392918291908083835b602083106138225780518252601f199092019160209182019101613803565b6001836020036101000a0380198251168184511680821785525050505050509050019150506000604051808303816000865af19150503d8060008114613884576040519150601f19603f3d011682016040523d82523d6000602084013e613889565b606091505b50915091508180156138b75750805115806138b757508080602001905160208110156138b457600080fd5b50515b6138ed576040805162461bcd60e51b81526020600482015260026024820152612a2360f11b604482015290519081900360640190fd5b5050505050565b604080513060248083019190915282518083039091018152604490910182526020810180516001600160e01b03166370a0823160e01b17815291518151600093849384936001600160a01b037f00000000000000000000000000000000000000000000000000000000000000001693919290918291908083835b6020831061398d5780518252601f19909201916020918201910161396e565b6001836020036101000a038019825116818451168082178552505050505050905001915050600060405180830381855afa9150503d80600081146139ed576040519150601f19603f3d011682016040523d82523d6000602084013e6139f2565b606091505b5091509150818015613a0657506020815110155b613a0f57600080fd5b808060200190516020811015613a2457600080fd5b50519250505090565b8082018281101561356657600080fd5b604080513060248083019190915282518083039091018152604490910182526020810180516001600160e01b03166370a0823160e01b17815291518151600093849384936001600160a01b037f00000000000000000000000000000000000000000000000000000000000000001693919290918291908083836020831061398d5780518252601f19909201916020918201910161396e565b80600f81900b81146131c657600080fd5b6000806000613af36131cb565b613b0584602001518560400151614147565b6040805160e0810182526000546001600160a01b0381168252600160a01b8104600290810b810b900b602080840182905261ffff600160b81b8404811685870152600160c81b84048116606080870191909152600160d81b8504909116608086015260ff600160e81b8504811660a0870152600160f01b909404909316151560c085015288519089015194890151928901519394613ba99491939092909190614572565b93508460600151600f0b6000146140a157846020015160020b816020015160020b1215613cec57613ce5739abB90cB144d5F83EB9936c592E2526F1DCEBA0463986cfba387602001516040518263ffffffff1660e01b8152600401808260020b815260200191505060206040518083038186803b158015613c2957600080fd5b505af4158015613c3d573d6000803e3d6000fd5b505050506040513d6020811015613c5357600080fd5b5051604080880151815163986cfba360e01b815260029190910b60048201529051739abB90cB144d5F83EB9936c592E2526F1DCEBA049163986cfba3916024808301926020929190829003018186803b158015613caf57600080fd5b505af4158015613cc3573d6000803e3d6000fd5b505050506040513d6020811015613cd957600080fd5b50516060880151614b99565b92506140a1565b846040015160020b816020015160020b1215613f895760045460408201516001600160801b039091169073509a04665062c08f74928c3d2C3039628677c61B9063ab329c2390600890613d3d613202565b866020015186886060015189608001516040518863ffffffff1660e01b8152600401808881526020018761ffff1681526020018663ffffffff1681526020018560020b8152602001846001600160801b031681526020018361ffff1681526020018261ffff168152602001975050505050505050604080518083038186803b158015613dc857600080fd5b505af4158015613ddc573d6000803e3d6000fd5b505050506040513d6040811015613df257600080fd5b5080516020918201516000805461ffff938416600160b81b0261ffff60b81b1994909316600160c81b0261ffff60c81b1990911617929092161790558251604088810151815163986cfba360e01b815260029190910b60048201529051613ec093739abB90cB144d5F83EB9936c592E2526F1DCEBA049263986cfba39260248083019392829003018186803b158015613e8a57600080fd5b505af4158015613e9e573d6000803e3d6000fd5b505050506040513d6020811015613eb457600080fd5b50516060890151614b99565b9350613f53739abB90cB144d5F83EB9936c592E2526F1DCEBA0463986cfba388602001516040518263ffffffff1660e01b8152600401808260020b815260200191505060206040518083038186803b158015613f1b57600080fd5b505af4158015613f2f573d6000803e3d6000fd5b505050506040513d6020811015613f4557600080fd5b505183516060890151614bdd565b9250613f638187606001516136f0565b600480546001600160801b0319166001600160801b0392909216919091179055506140a1565b61409e739abB90cB144d5F83EB9936c592E2526F1DCEBA0463986cfba387602001516040518263ffffffff1660e01b8152600401808260020b815260200191505060206040518083038186803b158015613fe257600080fd5b505af4158015613ff6573d6000803e3d6000fd5b505050506040513d602081101561400c57600080fd5b5051604080880151815163986cfba360e01b815260029190910b60048201529051739abB90cB144d5F83EB9936c592E2526F1DCEBA049163986cfba3916024808301926020929190829003018186803b15801561406857600080fd5b505af415801561407c573d6000803e3d6000fd5b505050506040513d602081101561409257600080fd5b50516060880151614bdd565b91505b509193909250565b60006140b6848484613582565b9050600082806140c257fe5b848609111561362b5760001981106140d957600080fd5b6001019392505050565b6040805160609490941b6bffffffffffffffffffffffff1916602080860191909152600293840b60e890811b60348701529290930b90911b60378401528051808403601a018152603a90930181528251928201929092206000908152929052902090565b8060020b8260020b12614187576040805162461bcd60e51b8152602060048201526003602482015262544c5560e81b604482015290519081900360640190fd5b620d89e719600283900b12156141ca576040805162461bcd60e51b8152602060048201526003602482015262544c4d60e81b604482015290519081900360640190fd5b620d89e8600282900b131561420c576040805162461bcd60e51b815260206004820152600360248201526254554d60e81b604482015290519081900360640190fd5b5050565b60020b600881901d9161010090910790565b600080821161423057600080fd5b600160801b821061424357608091821c91015b68010000000000000000821061425b57604091821c91015b600160201b821061426e57602091821c91015b62010000821061428057601091821c91015b610100821061429157600891821c91015b601082106142a157600491821c91015b600482106142b157600291821c91015b600282106131c657600101919050565b60008082116142cf57600080fd5b5060ff6001600160801b038216156142ea57607f19016142f2565b608082901c91505b67ffffffffffffffff82161561430b57603f1901614313565b604082901c91505b63ffffffff82161561432857601f1901614330565b602082901c91505b61ffff82161561434357600f190161434b565b601082901c91505b60ff82161561435d5760071901614365565b600882901c91505b600f821615614377576003190161437f565b600482901c91505b60038216156143915760011901614399565b600282901c91505b60018216156131c65760001901919050565b6000836001600160a01b0316856001600160a01b031611156143cb579293925b816143f8576143f3836001600160801b03168686036001600160a01b0316600160601b613582565b61441b565b61441b836001600160801b03168686036001600160a01b0316600160601b6140a9565b90505b949350505050565b6000836001600160a01b0316856001600160a01b03161115614446579293925b6fffffffffffffffffffffffffffffffff60601b606084901b166001600160a01b03868603811690871661447957600080fd5b836144a957866001600160a01b031661449c8383896001600160a01b0316613582565b816144a357fe5b046144cf565b6144cf6144c08383896001600160a01b03166140a9565b886001600160a01b0316614c0c565b979650505050505050565b600080856001600160a01b0316116144f157600080fd5b6000846001600160801b03161161450757600080fd5b81614519576143f38585856001614c17565b61441b8585856001614cf8565b600080856001600160a01b03161161453d57600080fd5b6000846001600160801b03161161455357600080fd5b81614565576143f38585856000614cf8565b61441b8585856000614c17565b600061458160078787876140e3565b60015460025491925090600080600f87900b156147635760006145a2613202565b600080546004805460408051639a7fc61560e01b815260089381019390935263ffffffff8616602484015260448301859052600160a01b8404600290810b900b606484015261ffff600160b81b8504811660848501526001600160801b0390921660a4840152600160c81b9093041660c482015281519394509192839273509a04665062c08f74928c3d2C3039628677c61B92639a7fc6159260e480840193829003018186803b15801561465557600080fd5b505af4158015614669573d6000803e3d6000fd5b505050506040513d604081101561467f57600080fd5b50805160209091015190925090506146c260058d8b8d8b8b87898b60007f0000000000000000000000000000000000000000000000000000000000000000614de4565b94506146f960058c8b8d8b8b87898b60017f0000000000000000000000000000000000000000000000000000000000000000614de4565b9350841561472d5761472d60068d7f0000000000000000000000000000000000000000000000000000000000000000614fb9565b831561475f5761475f60068c7f0000000000000000000000000000000000000000000000000000000000000000614fb9565b5050505b60008061477560058c8c8b8a8a61501f565b90925090507f00000000000000000000000000000000000000000000000000000000000000006001600160a01b03166003604360981b0114806147e757507f00000000000000000000000000000000000000000000000000000000000000006001600160a01b03166003604360981b01145b15614965576040805163e12f3a6160e01b815230600482015290516000916003604360981b019163e12f3a6191602480820192602092909190829003018186803b15801561483457600080fd5b505afa158015614848573d6000803e3d6000fd5b505050506040513d602081101561485e57600080fd5b505160408051635569f64b60e11b81523060048201526024810183905290519192506000916003604360981b019163aad3ec9691604480830192602092919082900301818787803b1580156148b257600080fd5b505af11580156148c6573d6000803e3d6000fd5b505050506040513d60208110156148dc57600080fd5b505190507f00000000000000000000000000000000000000000000000000000000000000006001600160a01b03166003604360981b0114156149215760018054820190555b7f00000000000000000000000000000000000000000000000000000000000000006001600160a01b03166003604360981b0114156149625760028054820190555b50505b7f00000000000000000000000000000000000000000000000000000000000000006001600160a01b03166004604360981b0114806149d257507f00000000000000000000000000000000000000000000000000000000000000006001600160a01b03166004604360981b01145b15614b50576040805163e12f3a6160e01b815230600482015290516000916004604360981b019163e12f3a6191602480820192602092909190829003018186803b158015614a1f57600080fd5b505afa158015614a33573d6000803e3d6000fd5b505050506040513d6020811015614a4957600080fd5b505160408051635569f64b60e11b81523060048201526024810183905290519192506000916004604360981b019163aad3ec9691604480830192602092919082900301818787803b158015614a9d57600080fd5b505af1158015614ab1573d6000803e3d6000fd5b505050506040513d6020811015614ac757600080fd5b505190507f00000000000000000000000000000000000000000000000000000000000000006001600160a01b03166004604360981b011415614b0c5760018054820190555b7f00000000000000000000000000000000000000000000000000000000000000006001600160a01b03166004604360981b011415614b4d5760028054820190555b50505b614b5c878a84846150cb565b600089600f0b1215614b8a578315614b7957614b7960058c615260565b8215614b8a57614b8a60058b615260565b50505050505095945050505050565b60008082600f0b12614bbf57614bba614bb58585856001614426565b61353a565b61441e565b614bd2614bb58585856000036000614426565b600003949350505050565b60008082600f0b12614bf957614bba614bb585858560016143ab565b614bd2614bb585858560000360006143ab565b808204910615150190565b60008115614c8a5760006001600160a01b03841115614c4d57614c4884600160601b876001600160801b0316613582565b614c65565b6001600160801b038516606085901b81614c6357fe5b045b9050614c82614c7d6001600160a01b03881683613a2d565b61528c565b91505061441e565b60006001600160a01b03841115614cb857614cb384600160601b876001600160801b03166140a9565b614ccf565b614ccf606085901b6001600160801b038716614c0c565b905080866001600160a01b031611614ce657600080fd5b6001600160a01b03861603905061441e565b600082614d0657508361441e565b6fffffffffffffffffffffffffffffffff60601b606085901b168215614d9d576001600160a01b03861684810290858281614d3d57fe5b041415614d6e57818101828110614d6c57614d6283896001600160a01b0316836140a9565b935050505061441e565b505b614d9482614d8f878a6001600160a01b03168681614d8857fe5b0490613a2d565b614c0c565b9250505061441e565b6001600160a01b03861684810290858281614db457fe5b04148015614dc157508082115b614dca57600080fd5b808203614d62614c7d846001600160a01b038b16846140a9565b60028a810b900b600090815260208c90526040812080546001600160801b031682614e0f828d6136f0565b9050846001600160801b0316816001600160801b03161115614e5d576040805162461bcd60e51b81526020600482015260026024820152614c4f60f01b604482015290519081900360640190fd5b6001600160801b038281161590821615811415945015614f1e578c60020b8e60020b13614eee57600183018b9055600283018a9055600383018054670100000000000000600160d81b031916600160381b6001600160a01b038c16021766ffffffffffffff191666ffffffffffffff60068b900b161763ffffffff60d81b1916600160d81b63ffffffff8a16021790555b6003830180547effffffffffffffffffffffffffffffffffffffffffffffffffffffffffffff16600160f81b1790555b82546001600160801b0319166001600160801b03821617835585614f67578254614f6290614f5d90600160801b9004600f90810b810b908f900b61356c565b613ad5565b614f88565b8254614f8890614f5d90600160801b9004600f90810b810b908f900b613550565b8354600f9190910b6001600160801b03908116600160801b0291161790925550909c9b505050505050505050505050565b8060020b8260020b81614fc857fe5b0760020b15614fd657600080fd5b600080614ff18360020b8560020b81614feb57fe5b05614210565b600191820b820b60009081526020979097526040909620805460ff9097169190911b90951890945550505050565b600285810b80820b60009081526020899052604080822088850b850b83529082209193849391929184918291908a900b1261506557505060018201546002830154615078565b8360010154880391508360020154870390505b6000808b60020b8b60020b121561509a575050600183015460028401546150ad565b84600101548a0391508460020154890390505b92909803979097039b96909503949094039850939650505050505050565b6040805160a08101825285546001600160801b0390811682526001870154602083015260028701549282019290925260038601548083166060830152600160801b900490911660808201526000600f85900b61516a5781516001600160801b0316615162576040805162461bcd60e51b815260206004820152600260248201526104e560f41b604482015290519081900360640190fd5b508051615179565b815161517690866136f0565b90505b600061519d8360200151860384600001516001600160801b0316600160801b613582565b905060006151c38460400151860385600001516001600160801b0316600160801b613582565b905086600f0b6000146151ea5787546001600160801b0319166001600160801b0384161788555b60018801869055600288018590556001600160801b03821615158061521857506000816001600160801b0316115b15615256576003880180546001600160801b031981166001600160801b039182168501821617808216600160801b9182900483168501909216021790555b5050505050505050565b600290810b810b6000908152602092909252604082208281556001810183905590810182905560030155565b806001600160a01b03811681146131c657600080fd5b6040805160e081018252600080825260208201819052918101829052606081018290526080810182905260a0810182905260c08101919091529056fea164736f6c6343000706000aa164736f6c6343000706000ac66a3fdf07232cdd185febcc6579d408c241b47ae2f9907d84be655141eeaecc",
  "deployedBytecode": "0x60806040523480156200001157600080fd5b5060043610620000945760003560e01c80638a7c195f11620000635780638a7c195f14620001a75780638da5cb5b14620001d5578063a167129514620001df578063f851a440146200021e5762000094565b806313af403514620000995780631698ee8214620000c457806322afcccb146200011f57806389035730146200015b575b600080fd5b620000c260048036036020811015620000b157600080fd5b50356001600160a01b031662000228565b005b6200010360048036036060811015620000dc57600080fd5b5080356001600160a01b03908116916020810135909116906040013562ffffff166200029c565b604080516001600160a01b039092168252519081900360200190f35b62000144600480360360208110156200013757600080fd5b503562ffffff16620002c8565b6040805160029290920b8252519081900360200190f35b62000165620002dd565b604080516001600160a01b0396871681529486166020860152929094168383015262ffffff16606083015260029290920b608082015290519081900360a00190f35b620000c260048036036040811015620001bf57600080fd5b5062ffffff813516906020013560020b62000313565b62000103620003db565b6200010360048036036060811015620001f757600080fd5b5080356001600160a01b03908116916020810135909116906040013562ffffff16620003ea565b620001036200058a565b6003546001600160a01b031633146200024057600080fd5b6003546040516001600160a01b038084169216907fb532073b38c83145e3e5135377a08bf9aab55bc0fd7c1179cd4fb995d2a5159c90600090a3600380546001600160a01b0319166001600160a01b0392909216919091179055565b60066020908152600093845260408085208252928452828420905282529020546001600160a01b031681565b60056020526000908152604090205460020b81565b600054600154600280546001600160a01b03938416939283169281169162ffffff600160a01b83041691600160b81b9004900b85565b6003546001600160a01b031633146200032b57600080fd5b620f42408262ffffff16106200034057600080fd5b60008160020b1380156200035857506140008160020b125b6200036257600080fd5b62ffffff8216600090815260056020526040902054600290810b900b156200038957600080fd5b62ffffff828116600081815260056020526040808220805462ffffff1916600287900b958616179055517fc66a3fdf07232cdd185febcc6579d408c241b47ae2f9907d84be655141eeaecc9190a35050565b6003546001600160a01b031681565b6000620003f662000599565b826001600160a01b0316846001600160a01b031614156200041657600080fd5b600080846001600160a01b0316866001600160a01b0316106200043b5784866200043e565b85855b90925090506001600160a01b0382166200045757600080fd5b62ffffff8416600090815260056020526040902054600290810b9081900b6200047f57600080fd5b6001600160a01b0383811660009081526006602090815260408083208685168452825280832062ffffff8a1684529091529020541615620004bf57600080fd5b620004ce3084848885620005d1565b6001600160a01b03808516600081815260066020818152604080842089871680865290835281852062ffffff8e168087529084528286208054988a166001600160a01b0319998a1681179091558287529484528286208787528452828620818752845294829020805490971684179096558051600289900b815291820192909252815195995091947f783cca1c0412dd0d695e784568c96da2e9c22ff989357a2e8b1d9b2b4e6b71189281900390910190a45050509392505050565b6004546001600160a01b031681565b306001600160a01b037f00000000000000000000000000000000000000000000000000000000000000001614620005cf57600080fd5b565b6040805160a0810182526001600160a01b03878116808352878216602080850182905292881684860181905262ffffff888116606080880182905260028a810b6080998a01819052600080546001600160a01b03199081169099178155600180548a16891790558254909816861762ffffff60a01b1916600160a01b85021762ffffff60b81b1916600160b81b91830b9095160293909317909255875180870194909452838801929092528281019190915285518083039091018152930193849052825192909101919091209091620006aa906200071a565b8190604051809103906000f5905080158015620006cb573d6000803e3d6000fd5b50600080546001600160a01b0319908116909155600180549091169055600280547fffffffffffff00000000000000000000000000000000000000000000000000001690559695505050505050565b6158a580620007298339019056fe6101606040523480156200001257600080fd5b503060601b608052604051631a33757d60e01b815260009073430000000000000000000000000000000000000390631a33757d9060029060040180828152602001915050602060405180830381600087803b1580156200007157600080fd5b505af115801562000086573d6000803e3d6000fd5b505050506040513d60208110156200009d57600080fd5b5050604051631a33757d60e01b815273430000000000000000000000000000000000000490631a33757d9060029060040180828152602001915050602060405180830381600087803b158015620000f357600080fd5b505af115801562000108573d6000803e3d6000fd5b505050506040513d60208110156200011f57600080fd5b505060408051630890357360e41b81529051600091339163890357309160048082019260a092909190829003018186803b1580156200015d57600080fd5b505afa15801562000172573d6000803e3d6000fd5b505050506040513d60a08110156200018957600080fd5b50805160208201516040808401516060808601516080909601516001600160e81b031960e897881b16610100526001600160601b031992821b831660e05293811b821660c052600284810b900b90951b610120529383901b90931660a0528251634e606c4760e01b8152925190945090925073430000000000000000000000000000000000000291634e606c4791600480830192600092919082900301818387803b1580156200023857600080fd5b505af11580156200024d573d6000803e3d6000fd5b505050507343000000000000000000000000000000000000026001600160a01b031663eb864698826001600160a01b031663f851a4406040518163ffffffff1660e01b815260040160206040518083038186803b158015620002ae57600080fd5b505afa158015620002c3573d6000803e3d6000fd5b505050506040513d6020811015620002da57600080fd5b5051604080516001600160e01b031960e085901b1681526001600160a01b03909216600483015251602480830192600092919082900301818387803b1580156200032357600080fd5b505af115801562000338573d6000803e3d6000fd5b50505050732536fe9ab3f511540f2f9e2ec2a805005c3dd8006001600160a01b03166336b91f2b826001600160a01b031663f851a4406040518163ffffffff1660e01b815260040160206040518083038186803b1580156200039957600080fd5b505afa158015620003ae573d6000803e3d6000fd5b505050506040513d6020811015620003c557600080fd5b5051604080516001600160e01b031960e085901b1681526001600160a01b03909216600483015251602480830192600092919082900301818387803b1580156200040e57600080fd5b505af115801562000423573d6000803e3d6000fd5b505050506200043d826200045760201b6200315f1760201c565b60801b6001600160801b0319166101405250620004c59050565b60008082600281900b620d89e719816200046d57fe5b05029050600083600281900b620d89e8816200048557fe5b0502905060008460020b83830360020b816200049d57fe5b0560010190508062ffffff166001600160801b03801681620004bb57fe5b0495945050505050565b60805160601c60a05160601c60c05160601c60e05160601c6101005160e81c6101205160e81c6101405160801c6152eb620005ba600039806122a2528061469e52806146d5525080610bf85280612e225280614709528061473b525080610d5c5280611c7f5280611cb65280612e6a5250806113ef5280611d3952806121a852806126dd5280612e465280613a8b52806147b5528061492352806149a05280614b0e5250806108ca528061151d5280611d08528061214252806126575280613942528061477c52806148e252806149675280614acd52508061232f52806125165280612dfe5250806131d652506152eb6000f3fe608060405234801561001057600080fd5b50600436106101ae5760003560e01c806370cf754a116100ee578063c45a015511610097578063ddca3f4311610071578063ddca3f43146107f8578063f305839914610818578063f30dba9314610820578063f637731d146108a2576101ae565b8063c45a0155146107c9578063d0c93a7c146107d1578063d21220a7146107f0576101ae565b8063883bdbfd116100c8578063883bdbfd1461062d578063a34123a714610734578063a38807f21461076e576101ae565b806370cf754a146105c05780638206a4d1146105c857806385b66729146105f0576101ae565b80633850c7bd1161015b578063490e6cbc11610135578063490e6cbc1461046c5780634f1eb3d8146104f6578063514ea4bf146105475780635339c296146105a0576101ae565b80633850c7bd146103595780633c8a7d8d146103b25780634614131914610452576101ae565b80631ad8b03b1161018c5780631ad8b03b146102a8578063252c09d7146102df57806332148f6714610336576101ae565b80630dfe1681146101b3578063128acb08146101d75780631a68650214610284575b600080fd5b6101bb6108c8565b604080516001600160a01b039092168252519081900360200190f35b61026b600480360360a08110156101ed57600080fd5b6001600160a01b0382358116926020810135151592604082013592606083013516919081019060a081016080820135600160201b81111561022d57600080fd5b82018360208201111561023f57600080fd5b803590602001918460018302840111600160201b8311171561026057600080fd5b5090925090506108ec565b6040805192835260208301919091528051918290030190f35b61028c6116d5565b604080516001600160801b039092168252519081900360200190f35b6102b06116e4565b60405180836001600160801b03168152602001826001600160801b031681526020019250505060405180910390f35b6102fc600480360360208110156102f557600080fd5b50356116fe565b6040805163ffffffff909516855260069390930b60208501526001600160a01b039091168383015215156060830152519081900360800190f35b6103576004803603602081101561034c57600080fd5b503561ffff1661174b565b005b6103616118ca565b604080516001600160a01b03909816885260029690960b602088015261ffff9485168787015292841660608701529216608085015260ff90911660a0840152151560c0830152519081900360e00190f35b61026b600480360360a08110156103c857600080fd5b6001600160a01b03823516916020810135600290810b92604083013590910b916001600160801b036060820135169181019060a081016080820135600160201b81111561041457600080fd5b82018360208201111561042657600080fd5b803590602001918460018302840111600160201b8311171561044757600080fd5b50909250905061191a565b61045a611bd6565b60408051918252519081900360200190f35b6103576004803603608081101561048257600080fd5b6001600160a01b038235169160208101359160408201359190810190608081016060820135600160201b8111156104b857600080fd5b8201836020820111156104ca57600080fd5b803590602001918460018302840111600160201b831117156104eb57600080fd5b509092509050611bdc565b6102b0600480360360a081101561050c57600080fd5b506001600160a01b03813516906020810135600290810b91604081013590910b906001600160801b0360608201358116916080013516612037565b6105646004803603602081101561055d57600080fd5b5035612251565b604080516001600160801b0396871681526020810195909552848101939093529084166060840152909216608082015290519081900360a00190f35b61045a600480360360208110156105b657600080fd5b503560010b61228e565b61028c6122a0565b610357600480360360408110156105de57600080fd5b5060ff813581169160200135166122c4565b6102b06004803603606081101561060657600080fd5b506001600160a01b03813516906001600160801b03602082013581169160400135166124a8565b61069b6004803603602081101561064357600080fd5b810190602081018135600160201b81111561065d57600080fd5b82018360208201111561066f57600080fd5b803590602001918460208302840111600160201b8311171561069057600080fd5b509092509050612775565b604051808060200180602001838103835285818151815260200191508051906020019060200280838360005b838110156106df5781810151838201526020016106c7565b50505050905001838103825284818151815260200191508051906020019060200280838360005b8381101561071e578181015183820152602001610706565b5050505090500194505050505060405180910390f35b61026b6004803603606081101561074a57600080fd5b508035600290810b91602081013590910b90604001356001600160801b03166129ed565b6107986004803603604081101561078457600080fd5b508035600290810b9160200135900b612b64565b6040805160069490940b84526001600160a01b03909216602084015263ffffffff1682820152519081900360600190f35b6101bb612dfc565b6107d9612e20565b6040805160029290920b8252519081900360200190f35b6101bb612e44565b610800612e68565b6040805162ffffff9092168252519081900360200190f35b61045a612e8c565b6108406004803603602081101561083657600080fd5b503560020b612e92565b604080516001600160801b039099168952600f9790970b602089015287870195909552606087019390935260069190910b60808601526001600160a01b031660a085015263ffffffff1660c0840152151560e083015251908190036101000190f35b610357600480360360208110156108b857600080fd5b50356001600160a01b0316612efc565b7f000000000000000000000000000000000000000000000000000000000000000081565b6000806108f76131cb565b8561092e576040805162461bcd60e51b8152602060048201526002602482015261415360f01b604482015290519081900360640190fd5b6040805160e0810182526000546001600160a01b0381168252600160a01b8104600290810b810b900b602083015261ffff600160b81b8204811693830193909352600160c81b810483166060830152600160d81b8104909216608082015260ff600160e81b8304811660a0830152600160f01b909204909116151560c082018190526109e7576040805162461bcd60e51b81526020600482015260036024820152624c4f4b60e81b604482015290519081900360640190fd5b87610a325780600001516001600160a01b0316866001600160a01b0316118015610a2d575073fffd8963efd1fc6a506488495d951d5263988d266001600160a01b038716105b610a64565b80600001516001600160a01b0316866001600160a01b0316108015610a6457506401000276a36001600160a01b038716115b610a9b576040805162461bcd60e51b815260206004820152600360248201526214d41360ea1b604482015290519081900360640190fd5b6000805460ff60f01b191681556040805160c08101909152808a610aca5760048460a0015160ff16901c610add565b60108460a0015160ff1681610adb57fe5b065b60ff1681526004546001600160801b03166020820152604001610afe613202565b63ffffffff168152602001600060060b815260200160006001600160a01b031681526020016000151581525090506000808913905060006040518060e001604052808b81526020016000815260200185600001516001600160a01b03168152602001856020015160020b81526020018c610b7a57600254610b7e565b6001545b815260200160006001600160801b0316815260200184602001516001600160801b031681525090505b805115801590610bcd5750886001600160a01b031681604001516001600160a01b031614155b1561112a57610bda6152a2565b60408201516001600160a01b031681526060820151610c1d906006907f00000000000000000000000000000000000000000000000000000000000000008f613206565b15156040830152600290810b810b60208301819052620d89e719910b1215610c4e57620d89e7196020820152610c6d565b6020810151620d89e860029190910b1315610c6d57620d89e860208201525b73__$b52f7ddb7db4526c8b5c81c46a9292f776$__63986cfba382602001516040518263ffffffff1660e01b8152600401808260020b815260200191505060206040518083038186803b158015610cc357600080fd5b505af4158015610cd7573d6000803e3d6000fd5b505050506040513d6020811015610ced57600080fd5b50516001600160a01b031660608201526040820151610d80908d610d29578b6001600160a01b031683606001516001600160a01b031611610d43565b8b6001600160a01b031683606001516001600160a01b0316105b610d51578260600151610d53565b8b5b60c085015185517f0000000000000000000000000000000000000000000000000000000000000000613348565b60c085015260a084015260808301526001600160a01b031660408301528215610de257610db68160c0015182608001510161353a565b825103825260a0810151610dd890610dcd9061353a565b602084015190613550565b6020830152610e1d565b610def8160a0015161353a565b825101825260c08101516080820151610e1791610e0c910161353a565b60208401519061356c565b60208301525b835160ff1615610e63576000846000015160ff168260c0015181610e3d57fe5b60c0840180519290910491829003905260a0840180519091016001600160801b03169052505b60c08201516001600160801b031615610ea257610e968160c00151600160801b8460c001516001600160801b0316613582565b60808301805190910190525b80606001516001600160a01b031682604001516001600160a01b0316141561106e57806040015115611045578360a00151610fcf57604080850151602080880151888401519188015160608a01518551639a7fc61560e01b81526008600482015263ffffffff90951660248601526000604486015260029290920b606485015261ffff92831660848501526001600160801b031660a48401521660c4820152815173__$a07b62fc6554bedc1c2bb30ca3e36905b5$__92639a7fc6159260e48082019391829003018186803b158015610f7a57600080fd5b505af4158015610f8e573d6000803e3d6000fd5b505050506040513d6040811015610fa457600080fd5b5080516020909101516001600160a01b03166080860152600690810b900b6060850152600160a08501525b600061101b82602001518e610fe657600154610fec565b84608001515b8f610ffb578560800151610fff565b6002545b608089015160608a015160408b01516005959493929190613632565b90508c15611027576000035b6110358360c00151826136f0565b6001600160801b031660c0840152505b8b61105457806020015161105d565b60018160200151035b600290810b900b6060830152611124565b80600001516001600160a01b031682604001516001600160a01b0316146111245773__$b52f7ddb7db4526c8b5c81c46a9292f776$__634f76c05883604001516040518263ffffffff1660e01b815260040180826001600160a01b0316815260200191505060206040518083038186803b1580156110eb57600080fd5b505af41580156110ff573d6000803e3d6000fd5b505050506040513d602081101561111557600080fd5b5051600290810b900b60608301525b50610ba7565b836020015160020b816060015160020b146112af57600080600873__$a07b62fc6554bedc1c2bb30ca3e36905b5$__63ab329c239091886040015188604001518a602001518a602001518c606001518d608001516040518863ffffffff1660e01b8152600401808881526020018761ffff1681526020018663ffffffff1681526020018560020b8152602001846001600160801b031681526020018361ffff1681526020018261ffff168152602001975050505050505050604080518083038186803b1580156111f957600080fd5b505af415801561120d573d6000803e3d6000fd5b505050506040513d604081101561122357600080fd5b508051602090910151604085015160608601516000805461ffff60c81b1916600160c81b61ffff958616021761ffff60b81b1916600160b81b94909516939093029390931762ffffff60a01b1916600160a01b62ffffff60029590950b9490941693909302929092176001600160a01b0319166001600160a01b03909216919091179055506112d49050565b6040810151600080546001600160a01b0319166001600160a01b039092169190911790555b8060c001516001600160801b031683602001516001600160801b03161461131a5760c0810151600480546001600160801b0319166001600160801b039092169190911790555b8a1561136a57608081015160015560a08101516001600160801b0316156113655760a0810151600380546001600160801b031981166001600160801b03918216909301169190911790555b6113b0565b608081015160025560a08101516001600160801b0316156113b05760a0810151600380546001600160801b03808216600160801b92839004821690940116029190911790555b8115158b1515146113c957602081015181518b036113d6565b80600001518a0381602001515b90965094508a1561150f576000851215611418576114187f00000000000000000000000000000000000000000000000000000000000000008d876000036137a6565b60006114226138f4565b9050336001600160a01b031663e8d917fe88888c8c6040518563ffffffff1660e01b815260040180858152602001848152602001806020018281038252848482818152602001925080828437600081840152601f19601f82011690508083019250505095505050505050600060405180830381600087803b1580156114a657600080fd5b505af11580156114ba573d6000803e3d6000fd5b505050506114c66138f4565b6114d08289613a2d565b1115611509576040805162461bcd60e51b815260206004820152600360248201526249494160e81b604482015290519081900360640190fd5b50611639565b6000861215611546576115467f00000000000000000000000000000000000000000000000000000000000000008d886000036137a6565b6000611550613a3d565b9050336001600160a01b031663e8d917fe88888c8c6040518563ffffffff1660e01b815260040180858152602001848152602001806020018281038252848482818152602001925080828437600081840152601f19601f82011690508083019250505095505050505050600060405180830381600087803b1580156115d457600080fd5b505af11580156115e8573d6000803e3d6000fd5b505050506115f4613a3d565b6115fe8288613a2d565b1115611637576040805162461bcd60e51b815260206004820152600360248201526249494160e81b604482015290519081900360640190fd5b505b60408082015160c083015160608085015184518b8152602081018b90526001600160a01b03948516818701526001600160801b039093169183019190915260020b60808201529151908e169133917fc42079f94a6350d7e6235f29174924f928cc2ac818eb64fed8004e115fbcca679181900360a00190a350506000805460ff60f01b1916600160f01b17905550919890975095505050505050565b6004546001600160801b031681565b6003546001600160801b0380821691600160801b90041682565b60088161ffff811061170f57600080fd5b015463ffffffff81169150600160201b810460060b906b01000000000000000000000081046001600160a01b031690600160f81b900460ff1684565b600054600160f01b900460ff1661178f576040805162461bcd60e51b81526020600482015260036024820152624c4f4b60e81b604482015290519081900360640190fd5b6000805460ff60f01b191690556117a46131cb565b60008054604080516398cdb26160e01b81526008600482015261ffff600160d81b9093048316602482018190529285166044820152905191929173__$a07b62fc6554bedc1c2bb30ca3e36905b5$__916398cdb261916064808301926020929190829003018186803b15801561181957600080fd5b505af415801561182d573d6000803e3d6000fd5b505050506040513d602081101561184357600080fd5b50516000805461ffff808416600160d81b810261ffff60d81b19909316929092179092559192508316146118b2576040805161ffff80851682528316602082015281517fac49e518f90a358f652e4400164f05a5d8f7e35e7747279bc3a93dbf584e125a929181900390910190a15b50506000805460ff60f01b1916600160f01b17905550565b6000546001600160a01b03811690600160a01b810460020b9061ffff600160b81b8204811691600160c81b8104821691600160d81b8204169060ff600160e81b8204811691600160f01b90041687565b600080548190600160f01b900460ff16611961576040805162461bcd60e51b81526020600482015260036024820152624c4f4b60e81b604482015290519081900360640190fd5b6000805460ff60f01b191690556001600160801b03851661198157600080fd5b6000806119cf60405180608001604052808c6001600160a01b031681526020018b60020b81526020018a60020b81526020016119c58a6001600160801b0316613ad5565b600f0b9052613ae6565b925092505081935080925060008060008611156119f1576119ee6138f4565b91505b8415611a02576119ff613a3d565b90505b336001600160a01b031663a148889887878b8b6040518563ffffffff1660e01b815260040180858152602001848152602001806020018281038252848482818152602001925080828437600081840152601f19601f82011690508083019250505095505050505050600060405180830381600087803b158015611a8457600080fd5b505af1158015611a98573d6000803e3d6000fd5b505050506000861115611aef57611aad6138f4565b611ab78388613a2d565b1115611aef576040805162461bcd60e51b815260206004820152600260248201526104d360f41b604482015290519081900360640190fd5b8415611b3f57611afd613a3d565b611b078287613a2d565b1115611b3f576040805162461bcd60e51b81526020600482015260026024820152614d3160f01b604482015290519081900360640190fd5b8960020b8b60020b8d6001600160a01b03167f7a53080ba414158be7ec69b987b5fb7d07dee101fe85488f0853ae16239d0bde338d8b8b60405180856001600160a01b03168152602001846001600160801b0316815260200183815260200182815260200194505050505060405180910390a450506000805460ff60f01b1916600160f01b17905550919890975095505050505050565b60025481565b600054600160f01b900460ff16611c20576040805162461bcd60e51b81526020600482015260036024820152624c4f4b60e81b604482015290519081900360640190fd5b6000805460ff60f01b19169055611c356131cb565b6004546001600160801b031680611c77576040805162461bcd60e51b81526020600482015260016024820152601360fa1b604482015290519081900360640190fd5b6000611cac867f000000000000000000000000000000000000000000000000000000000000000062ffffff16620f42406140a9565b90506000611ce3867f000000000000000000000000000000000000000000000000000000000000000062ffffff16620f42406140a9565b90506000611cef6138f4565b90506000611cfb613a3d565b90508815611d2e57611d2e7f00000000000000000000000000000000000000000000000000000000000000008b8b6137a6565b8715611d5f57611d5f7f00000000000000000000000000000000000000000000000000000000000000008b8a6137a6565b336001600160a01b031663a8aa99fd85858a8a6040518563ffffffff1660e01b815260040180858152602001848152602001806020018281038252848482818152602001925080828437600081840152601f19601f82011690508083019250505095505050505050600060405180830381600087803b158015611de157600080fd5b505af1158015611df5573d6000803e3d6000fd5b505050506000611e036138f4565b90506000611e0f613a3d565b905081611e1c8588613a2d565b1115611e54576040805162461bcd60e51b8152602060048201526002602482015261046360f41b604482015290519081900360640190fd5b80611e5f8487613a2d565b1115611e97576040805162461bcd60e51b8152602060048201526002602482015261463160f01b604482015290519081900360640190fd5b8382038382038115611f265760008054600160e81b9004600f16908115611eca578160ff168481611ec457fe5b04611ecd565b60005b90506001600160801b03811615611f0057600380546001600160801b038082168401166001600160801b03199091161790555b611f1a818503600160801b8d6001600160801b0316613582565b60018054909101905550505b8015611fb15760008054600160e81b900460041c600f16908115611f56578160ff168381611f5057fe5b04611f59565b60005b90506001600160801b03811615611f8b57600380546001600160801b03600160801b8083048216850182160291161790555b611fa5818403600160801b8d6001600160801b0316613582565b60028054909101905550505b8d6001600160a01b0316336001600160a01b03167fbdbdb71d7860376ba52b25a5028beea23581364a40522f6bcfb86bb1f2dca6338f8f86866040518085815260200184815260200183815260200182815260200194505050505060405180910390a350506000805460ff60f01b1916600160f01b179055505050505050505050505050565b600080548190600160f01b900460ff1661207e576040805162461bcd60e51b81526020600482015260036024820152624c4f4b60e81b604482015290519081900360640190fd5b6000805460ff60f01b1916815561209860073389896140e3565b60038101549091506001600160801b03908116908616116120b957846120c8565b60038101546001600160801b03165b60038201549093506001600160801b03600160801b9091048116908516116120f05783612106565b6003810154600160801b90046001600160801b03165b91506001600160801b0383161561216b576003810180546001600160801b031981166001600160801b0391821686900382161790915561216b907f0000000000000000000000000000000000000000000000000000000000000000908a9086166137a6565b6001600160801b038216156121d1576003810180546001600160801b03600160801b8083048216869003821602918116919091179091556121d1907f0000000000000000000000000000000000000000000000000000000000000000908a9085166137a6565b604080516001600160a01b038a1681526001600160801b0380861660208301528416818301529051600288810b92908a900b9133917f70935338e69775456a85ddef226c395fb668b63fa0115f5f20610b388e6ca9c0919081900360600190a4506000805460ff60f01b1916600160f01b17905590969095509350505050565b60076020526000908152604090208054600182015460028301546003909301546001600160801b0392831693919281811691600160801b90041685565b60066020526000908152604090205481565b7f000000000000000000000000000000000000000000000000000000000000000081565b600054600160f01b900460ff16612308576040805162461bcd60e51b81526020600482015260036024820152624c4f4b60e81b604482015290519081900360640190fd5b6000805460ff60f01b1916905560408051638da5cb5b60e01b815290516001600160a01b037f00000000000000000000000000000000000000000000000000000000000000001691638da5cb5b916004808301926020929190829003018186803b15801561237557600080fd5b505afa158015612389573d6000803e3d6000fd5b505050506040513d602081101561239f57600080fd5b50516001600160a01b031633146123b557600080fd5b60ff821615806123d8575060048260ff16101580156123d85750600a8260ff1611155b8015612402575060ff81161580612402575060048160ff16101580156124025750600a8160ff1611155b61240b57600080fd5b60008054610ff0600484901b16840160ff908116600160e81b90810260ff60e81b19841617909355919004167f973d8d92bb299f4af6ce49b52a8adb85ae46b9f214c4c4fc06ac77401237b1336010826040805160ff9390920683168252600f600486901c16602083015286831682820152918516606082015290519081900360800190a150506000805460ff60f01b1916600160f01b17905550565b600080548190600160f01b900460ff166124ef576040805162461bcd60e51b81526020600482015260036024820152624c4f4b60e81b604482015290519081900360640190fd5b6000805460ff60f01b1916905560408051638da5cb5b60e01b815290516001600160a01b037f00000000000000000000000000000000000000000000000000000000000000001691638da5cb5b916004808301926020929190829003018186803b15801561255c57600080fd5b505afa158015612570573d6000803e3d6000fd5b505050506040513d602081101561258657600080fd5b50516001600160a01b0316331461259c57600080fd5b6003546001600160801b03908116908516116125b857836125c5565b6003546001600160801b03165b6003549092506001600160801b03600160801b9091048116908416116125eb57826125ff565b600354600160801b90046001600160801b03165b90506001600160801b03821615612680576003546001600160801b038381169116141561262e57600019909101905b600380546001600160801b031981166001600160801b03918216859003821617909155612680907f000000000000000000000000000000000000000000000000000000000000000090879085166137a6565b6001600160801b03811615612706576003546001600160801b03828116600160801b9092041614156126b157600019015b600380546001600160801b03600160801b808304821685900382160291811691909117909155612706907f000000000000000000000000000000000000000000000000000000000000000090879084166137a6565b604080516001600160801b0380851682528316602082015281516001600160a01b0388169233927f596b573906218d3411850b26a6b437d6c4522fdb43d2d2386263f86d50b8b151929081900390910190a36000805460ff60f01b1916600160f01b1790559094909350915050565b6060806127806131cb565b73__$a07b62fc6554bedc1c2bb30ca3e36905b5$__637b7513c160086127a4613202565b6000546004805460405160e087811b7fffffffff0000000000000000000000000000000000000000000000000000000016825292810186815263ffffffff86166024830152600160a01b8504600290810b9081900b6064840152600160b81b860461ffff908116608485018190526001600160801b0390951660a48501819052600160c81b9097041660c484018190526044840195865260e484018e90528e968e96929594909391929061010401886020890280828437600081840152601f19601f820116905080830192505050995050505050505050505060006040518083038186803b15801561289557600080fd5b505af41580156128a9573d6000803e3d6000fd5b505050506040513d6000823e601f3d908101601f1916820160409081528110156128d257600080fd5b8101908080516040519392919084600160201b8211156128f157600080fd5b90830190602082018581111561290657600080fd5b82518660208202830111600160201b8211171561292257600080fd5b82525081516020918201928201910280838360005b8381101561294f578181015183820152602001612937565b5050505090500160405260200180516040519392919084600160201b82111561297757600080fd5b90830190602082018581111561298c57600080fd5b82518660208202830111600160201b821117156129a857600080fd5b82525081516020918201928201910280838360005b838110156129d55781810151838201526020016129bd565b50505050905001604052505050915091509250929050565b600080548190600160f01b900460ff16612a34576040805162461bcd60e51b81526020600482015260036024820152624c4f4b60e81b604482015290519081900360640190fd5b6000805460ff60f01b1916815560408051608081018252338152600288810b602083015287900b9181019190915281908190612a8d9060608101612a806001600160801b038a16613ad5565b600003600f0b9052613ae6565b9250925092508160000394508060000393506000851180612aae5750600084115b15612aed576003830180546001600160801b038082168089018216600160801b93849004831689019092169092029091176001600160801b0319161790555b604080516001600160801b0388168152602081018790528082018690529051600289810b92908b900b9133917f0c396cd989a39f4459b5fa1aed6a9a8dcdbc45908acfd67e028cd568da98982c919081900360600190a450506000805460ff60f01b1916600160f01b179055509094909350915050565b6000806000612b716131cb565b612b7b8585614147565b600285810b810b60009081526005602052604080822087840b90930b825281206003830154600681900b93600160381b82046001600160a01b0316928492600160d81b810463ffffffff169284929091600160f81b900460ff1680612bdf57600080fd5b6003820154600681900b9850600160381b81046001600160a01b03169650600160d81b810463ffffffff169450600160f81b900460ff1680612c2057600080fd5b50506040805160e0810182526000546001600160a01b0381168252600160a01b8104600290810b810b810b6020840181905261ffff600160b81b8404811695850195909552600160c81b830485166060850152600160d81b8304909416608084015260ff600160e81b8304811660a0850152600160f01b909204909116151560c08301529093508e810b91900b12159050612cc957509390940396509003935090039050612df5565b8a60020b816020015160020b1215612de6576000612ce5613202565b60208301516040808501516004805460608801518451639a7fc61560e01b815260089381019390935263ffffffff8716602484015260006044840181905260029690960b606484015261ffff93841660848401526001600160801b0390911660a48301529190911660c482015281519394509192839273__$a07b62fc6554bedc1c2bb30ca3e36905b5$__92639a7fc6159260e480840193829003018186803b158015612d9157600080fd5b505af4158015612da5573d6000803e3d6000fd5b505050506040513d6040811015612dbb57600080fd5b5080516020909101519a9003989098039b505094909603929092039650909103039250612df5915050565b50949093039650039350900390505b9250925092565b7f000000000000000000000000000000000000000000000000000000000000000081565b7f000000000000000000000000000000000000000000000000000000000000000081565b7f000000000000000000000000000000000000000000000000000000000000000081565b7f000000000000000000000000000000000000000000000000000000000000000081565b60015481565b60056020526000908152604090208054600182015460028301546003909301546001600160801b03831693600160801b909304600f0b9290600681900b90600160381b81046001600160a01b031690600160d81b810463ffffffff1690600160f81b900460ff1688565b6000546001600160a01b031615612f3f576040805162461bcd60e51b8152602060048201526002602482015261414960f01b604482015290519081900360640190fd5b600073__$b52f7ddb7db4526c8b5c81c46a9292f776$__634f76c058836040518263ffffffff1660e01b815260040180826001600160a01b0316815260200191505060206040518083038186803b158015612f9957600080fd5b505af4158015612fad573d6000803e3d6000fd5b505050506040513d6020811015612fc357600080fd5b5051905060008073__$a07b62fc6554bedc1c2bb30ca3e36905b5$__63a0eff3f76008612fee613202565b6040518363ffffffff1660e01b8152600401808381526020018263ffffffff16815260200192505050604080518083038186803b15801561302e57600080fd5b505af4158015613042573d6000803e3d6000fd5b505050506040513d604081101561305857600080fd5b5080516020918201516040805160e0810182526001600160a01b038916808252600289810b838801819052600084860181905261ffff808916606087018190529088166080870181905260a08701839052600160c090970196909652815461ffff60e81b19600160d81b90970261ffff60d81b19600160c81b90930263ffffffff60b81b199686900b62ffffff16600160a01b0262ffffff60a01b196001600160a01b0319909416891793909316929092179590951617169290921793909316600160f01b17905582519081529485015280519295509093507f98636036cb66a9c19a37435efc1e90142190214e8abeb821bdba3f2990dd4c95928290030190a150505050565b60008082600281900b620d89e7198161317457fe5b05029050600083600281900b620d89e88161318b57fe5b0502905060008460020b83830360020b816131a257fe5b0560010190508062ffffff166001600160801b038016816131bf57fe5b0493505050505b919050565b306001600160a01b037f0000000000000000000000000000000000000000000000000000000000000000161461320057600080fd5b565b4290565b60008060008460020b8660020b8161321a57fe5b05905060008660020b12801561324157508460020b8660020b8161323a57fe5b0760020b15155b1561324b57600019015b83156132c05760008061325d83614210565b600182810b810b600090815260208d9052604090205460ff83169190911b800160001901908116801515975092945090925090856132a257888360ff168603026132b5565b886132ac82614222565b840360ff168603025b96505050505061333e565b6000806132cf83600101614210565b91509150600060018260ff166001901b031990506000818b60008660010b60010b815260200190815260200160002054169050806000141595508561332157888360ff0360ff16866001010102613337565b888361332c836142c1565b0360ff168660010101025b9650505050505b5094509492505050565b60008080806001600160a01b03808916908a1610158187128015906133cd5760006133818989620f42400362ffffff16620f4240613582565b90508261339a576133958c8c8c60016143ab565b6133a7565b6133a78b8d8c6001614426565b95508581106133b8578a96506133c7565b6133c48c8b83866144da565b96505b50613417565b816133e4576133df8b8b8b6000614426565b6133f1565b6133f18a8c8b60006143ab565b935083886000031061340557899550613417565b6134148b8a8a60000385614526565b95505b6001600160a01b038a811690871614821561347a578080156134365750815b61344c57613447878d8c6001614426565b61344e565b855b955080801561345b575081155b6134715761346c878d8c60006143ab565b613473565b845b94506134c4565b8080156134845750815b61349a576134958c888c60016143ab565b61349c565b855b95508080156134a9575081155b6134bf576134ba8c888c6000614426565b6134c1565b845b94505b811580156134d457508860000385115b156134e0578860000394505b8180156134ff57508a6001600160a01b0316876001600160a01b031614155b1561350e57858903935061352b565b613528868962ffffff168a620f42400362ffffff166140a9565b93505b50505095509550955095915050565b6000600160ff1b821061354c57600080fd5b5090565b8082038281131560008312151461356657600080fd5b92915050565b8181018281121560008312151461356657600080fd5b60008080600019858709868602925082811090839003039050806135b857600084116135ad57600080fd5b50829004905061362b565b8084116135c457600080fd5b6000848688096000868103871696879004966002600389028118808a02820302808a02820302808a02820302808a02820302808a02820302808a02909103029181900381900460010186841190950394909402919094039290920491909117919091029150505b9392505050565b600295860b860b60009081526020979097526040909620600181018054909503909455938301805490920390915560038201805463ffffffff600160d81b6001600160a01b03600160381b808504821690960316909402670100000000000000600160d81b031990921691909117600681810b90960390950b66ffffffffffffff1666ffffffffffffff199095169490941782810485169095039093160263ffffffff60d81b1990931692909217905554600160801b9004600f0b90565b60008082600f0b121561375557826001600160801b03168260000384039150816001600160801b031610613750576040805162461bcd60e51b81526020600482015260026024820152614c5360f01b604482015290519081900360640190fd5b613566565b826001600160801b03168284019150816001600160801b03161015613566576040805162461bcd60e51b81526020600482015260026024820152614c4160f01b604482015290519081900360640190fd5b604080516001600160a01b038481166024830152604480830185905283518084039091018152606490920183526020820180516001600160e01b031663a9059cbb60e01b1781529251825160009485949389169392918291908083835b602083106138225780518252601f199092019160209182019101613803565b6001836020036101000a0380198251168184511680821785525050505050509050019150506000604051808303816000865af19150503d8060008114613884576040519150601f19603f3d011682016040523d82523d6000602084013e613889565b606091505b50915091508180156138b75750805115806138b757508080602001905160208110156138b457600080fd5b50515b6138ed576040805162461bcd60e51b81526020600482015260026024820152612a2360f11b604482015290519081900360640190fd5b5050505050565b604080513060248083019190915282518083039091018152604490910182526020810180516001600160e01b03166370a0823160e01b17815291518151600093849384936001600160a01b037f00000000000000000000000000000000000000000000000000000000000000001693919290918291908083835b6020831061398d5780518252601f19909201916020918201910161396e565b6001836020036101000a038019825116818451168082178552505050505050905001915050600060405180830381855afa9150503d80600081146139ed576040519150601f19603f3d011682016040523d82523d6000602084013e6139f2565b606091505b5091509150818015613a0657506020815110155b613a0f57600080fd5b808060200190516020811015613a2457600080fd5b50519250505090565b8082018281101561356657600080fd5b604080513060248083019190915282518083039091018152604490910182526020810180516001600160e01b03166370a0823160e01b17815291518151600093849384936001600160a01b037f00000000000000000000000000000000000000000000000000000000000000001693919290918291908083836020831061398d5780518252601f19909201916020918201910161396e565b80600f81900b81146131c657600080fd5b6000806000613af36131cb565b613b0584602001518560400151614147565b6040805160e0810182526000546001600160a01b0381168252600160a01b8104600290810b810b900b602080840182905261ffff600160b81b8404811685870152600160c81b84048116606080870191909152600160d81b8504909116608086015260ff600160e81b8504811660a0870152600160f01b909404909316151560c085015288519089015194890151928901519394613ba99491939092909190614572565b93508460600151600f0b6000146140a157846020015160020b816020015160020b1215613cec57613ce573__$b52f7ddb7db4526c8b5c81c46a9292f776$__63986cfba387602001516040518263ffffffff1660e01b8152600401808260020b815260200191505060206040518083038186803b158015613c2957600080fd5b505af4158015613c3d573d6000803e3d6000fd5b505050506040513d6020811015613c5357600080fd5b5051604080880151815163986cfba360e01b815260029190910b6004820152905173__$b52f7ddb7db4526c8b5c81c46a9292f776$__9163986cfba3916024808301926020929190829003018186803b158015613caf57600080fd5b505af4158015613cc3573d6000803e3d6000fd5b505050506040513d6020811015613cd957600080fd5b50516060880151614b99565b92506140a1565b846040015160020b816020015160020b1215613f895760045460408201516001600160801b039091169073__$a07b62fc6554bedc1c2bb30ca3e36905b5$__9063ab329c2390600890613d3d613202565b866020015186886060015189608001516040518863ffffffff1660e01b8152600401808881526020018761ffff1681526020018663ffffffff1681526020018560020b8152602001846001600160801b031681526020018361ffff1681526020018261ffff168152602001975050505050505050604080518083038186803b158015613dc857600080fd5b505af4158015613ddc573d6000803e3d6000fd5b505050506040513d6040811015613df257600080fd5b5080516020918201516000805461ffff938416600160b81b0261ffff60b81b1994909316600160c81b0261ffff60c81b1990911617929092161790558251604088810151815163986cfba360e01b815260029190910b60048201529051613ec09373__$b52f7ddb7db4526c8b5c81c46a9292f776$__9263986cfba39260248083019392829003018186803b158015613e8a57600080fd5b505af4158015613e9e573d6000803e3d6000fd5b505050506040513d6020811015613eb457600080fd5b50516060890151614b99565b9350613f5373__$b52f7ddb7db4526c8b5c81c46a9292f776$__63986cfba388602001516040518263ffffffff1660e01b8152600401808260020b815260200191505060206040518083038186803b158015613f1b57600080fd5b505af4158015613f2f573d6000803e3d6000fd5b505050506040513d6020811015613f4557600080fd5b505183516060890151614bdd565b9250613f638187606001516136f0565b600480546001600160801b0319166001600160801b0392909216919091179055506140a1565b61409e73__$b52f7ddb7db4526c8b5c81c46a9292f776$__63986cfba387602001516040518263ffffffff1660e01b8152600401808260020b815260200191505060206040518083038186803b158015613fe257600080fd5b505af4158015613ff6573d6000803e3d6000fd5b505050506040513d602081101561400c57600080fd5b5051604080880151815163986cfba360e01b815260029190910b6004820152905173__$b52f7ddb7db4526c8b5c81c46a9292f776$__9163986cfba3916024808301926020929190829003018186803b15801561406857600080fd5b505af415801561407c573d6000803e3d6000fd5b505050506040513d602081101561409257600080fd5b50516060880151614bdd565b91505b509193909250565b60006140b6848484613582565b9050600082806140c257fe5b848609111561362b5760001981106140d957600080fd5b6001019392505050565b6040805160609490941b6bffffffffffffffffffffffff1916602080860191909152600293840b60e890811b60348701529290930b90911b60378401528051808403601a018152603a90930181528251928201929092206000908152929052902090565b8060020b8260020b12614187576040805162461bcd60e51b8152602060048201526003602482015262544c5560e81b604482015290519081900360640190fd5b620d89e719600283900b12156141ca576040805162461bcd60e51b8152602060048201526003602482015262544c4d60e81b604482015290519081900360640190fd5b620d89e8600282900b131561420c576040805162461bcd60e51b815260206004820152600360248201526254554d60e81b604482015290519081900360640190fd5b5050565b60020b600881901d9161010090910790565b600080821161423057600080fd5b600160801b821061424357608091821c91015b68010000000000000000821061425b57604091821c91015b600160201b821061426e57602091821c91015b62010000821061428057601091821c91015b610100821061429157600891821c91015b601082106142a157600491821c91015b600482106142b157600291821c91015b600282106131c657600101919050565b60008082116142cf57600080fd5b5060ff6001600160801b038216156142ea57607f19016142f2565b608082901c91505b67ffffffffffffffff82161561430b57603f1901614313565b604082901c91505b63ffffffff82161561432857601f1901614330565b602082901c91505b61ffff82161561434357600f190161434b565b601082901c91505b60ff82161561435d5760071901614365565b600882901c91505b600f821615614377576003190161437f565b600482901c91505b60038216156143915760011901614399565b600282901c91505b60018216156131c65760001901919050565b6000836001600160a01b0316856001600160a01b031611156143cb579293925b816143f8576143f3836001600160801b03168686036001600160a01b0316600160601b613582565b61441b565b61441b836001600160801b03168686036001600160a01b0316600160601b6140a9565b90505b949350505050565b6000836001600160a01b0316856001600160a01b03161115614446579293925b6fffffffffffffffffffffffffffffffff60601b606084901b166001600160a01b03868603811690871661447957600080fd5b836144a957866001600160a01b031661449c8383896001600160a01b0316613582565b816144a357fe5b046144cf565b6144cf6144c08383896001600160a01b03166140a9565b886001600160a01b0316614c0c565b979650505050505050565b600080856001600160a01b0316116144f157600080fd5b6000846001600160801b03161161450757600080fd5b81614519576143f38585856001614c17565b61441b8585856001614cf8565b600080856001600160a01b03161161453d57600080fd5b6000846001600160801b03161161455357600080fd5b81614565576143f38585856000614cf8565b61441b8585856000614c17565b600061458160078787876140e3565b60015460025491925090600080600f87900b156147635760006145a2613202565b600080546004805460408051639a7fc61560e01b815260089381019390935263ffffffff8616602484015260448301859052600160a01b8404600290810b900b606484015261ffff600160b81b8504811660848501526001600160801b0390921660a4840152600160c81b9093041660c482015281519394509192839273__$a07b62fc6554bedc1c2bb30ca3e36905b5$__92639a7fc6159260e480840193829003018186803b15801561465557600080fd5b505af4158015614669573d6000803e3d6000fd5b505050506040513d604081101561467f57600080fd5b50805160209091015190925090506146c260058d8b8d8b8b87898b60007f0000000000000000000000000000000000000000000000000000000000000000614de4565b94506146f960058c8b8d8b8b87898b60017f0000000000000000000000000000000000000000000000000000000000000000614de4565b9350841561472d5761472d60068d7f0000000000000000000000000000000000000000000000000000000000000000614fb9565b831561475f5761475f60068c7f0000000000000000000000000000000000000000000000000000000000000000614fb9565b5050505b60008061477560058c8c8b8a8a61501f565b90925090507f00000000000000000000000000000000000000000000000000000000000000006001600160a01b03166003604360981b0114806147e757507f00000000000000000000000000000000000000000000000000000000000000006001600160a01b03166003604360981b01145b15614965576040805163e12f3a6160e01b815230600482015290516000916003604360981b019163e12f3a6191602480820192602092909190829003018186803b15801561483457600080fd5b505afa158015614848573d6000803e3d6000fd5b505050506040513d602081101561485e57600080fd5b505160408051635569f64b60e11b81523060048201526024810183905290519192506000916003604360981b019163aad3ec9691604480830192602092919082900301818787803b1580156148b257600080fd5b505af11580156148c6573d6000803e3d6000fd5b505050506040513d60208110156148dc57600080fd5b505190507f00000000000000000000000000000000000000000000000000000000000000006001600160a01b03166003604360981b0114156149215760018054820190555b7f00000000000000000000000000000000000000000000000000000000000000006001600160a01b03166003604360981b0114156149625760028054820190555b50505b7f00000000000000000000000000000000000000000000000000000000000000006001600160a01b03166004604360981b0114806149d257507f00000000000000000000000000000000000000000000000000000000000000006001600160a01b03166004604360981b01145b15614b50576040805163e12f3a6160e01b815230600482015290516000916004604360981b019163e12f3a6191602480820192602092909190829003018186803b158015614a1f57600080fd5b505afa158015614a33573d6000803e3d6000fd5b505050506040513d6020811015614a4957600080fd5b505160408051635569f64b60e11b81523060048201526024810183905290519192506000916004604360981b019163aad3ec9691604480830192602092919082900301818787803b158015614a9d57600080fd5b505af1158015614ab1573d6000803e3d6000fd5b505050506040513d6020811015614ac757600080fd5b505190507f00000000000000000000000000000000000000000000000000000000000000006001600160a01b03166004604360981b011415614b0c5760018054820190555b7f00000000000000000000000000000000000000000000000000000000000000006001600160a01b03166004604360981b011415614b4d5760028054820190555b50505b614b5c878a84846150cb565b600089600f0b1215614b8a578315614b7957614b7960058c615260565b8215614b8a57614b8a60058b615260565b50505050505095945050505050565b60008082600f0b12614bbf57614bba614bb58585856001614426565b61353a565b61441e565b614bd2614bb58585856000036000614426565b600003949350505050565b60008082600f0b12614bf957614bba614bb585858560016143ab565b614bd2614bb585858560000360006143ab565b808204910615150190565b60008115614c8a5760006001600160a01b03841115614c4d57614c4884600160601b876001600160801b0316613582565b614c65565b6001600160801b038516606085901b81614c6357fe5b045b9050614c82614c7d6001600160a01b03881683613a2d565b61528c565b91505061441e565b60006001600160a01b03841115614cb857614cb384600160601b876001600160801b03166140a9565b614ccf565b614ccf606085901b6001600160801b038716614c0c565b905080866001600160a01b031611614ce657600080fd5b6001600160a01b03861603905061441e565b600082614d0657508361441e565b6fffffffffffffffffffffffffffffffff60601b606085901b168215614d9d576001600160a01b03861684810290858281614d3d57fe5b041415614d6e57818101828110614d6c57614d6283896001600160a01b0316836140a9565b935050505061441e565b505b614d9482614d8f878a6001600160a01b03168681614d8857fe5b0490613a2d565b614c0c565b9250505061441e565b6001600160a01b03861684810290858281614db457fe5b04148015614dc157508082115b614dca57600080fd5b808203614d62614c7d846001600160a01b038b16846140a9565b60028a810b900b600090815260208c90526040812080546001600160801b031682614e0f828d6136f0565b9050846001600160801b0316816001600160801b03161115614e5d576040805162461bcd60e51b81526020600482015260026024820152614c4f60f01b604482015290519081900360640190fd5b6001600160801b038281161590821615811415945015614f1e578c60020b8e60020b13614eee57600183018b9055600283018a9055600383018054670100000000000000600160d81b031916600160381b6001600160a01b038c16021766ffffffffffffff191666ffffffffffffff60068b900b161763ffffffff60d81b1916600160d81b63ffffffff8a16021790555b6003830180547effffffffffffffffffffffffffffffffffffffffffffffffffffffffffffff16600160f81b1790555b82546001600160801b0319166001600160801b03821617835585614f67578254614f6290614f5d90600160801b9004600f90810b810b908f900b61356c565b613ad5565b614f88565b8254614f8890614f5d90600160801b9004600f90810b810b908f900b613550565b8354600f9190910b6001600160801b03908116600160801b0291161790925550909c9b505050505050505050505050565b8060020b8260020b81614fc857fe5b0760020b15614fd657600080fd5b600080614ff18360020b8560020b81614feb57fe5b05614210565b600191820b820b60009081526020979097526040909620805460ff9097169190911b90951890945550505050565b600285810b80820b60009081526020899052604080822088850b850b83529082209193849391929184918291908a900b1261506557505060018201546002830154615078565b8360010154880391508360020154870390505b6000808b60020b8b60020b121561509a575050600183015460028401546150ad565b84600101548a0391508460020154890390505b92909803979097039b96909503949094039850939650505050505050565b6040805160a08101825285546001600160801b0390811682526001870154602083015260028701549282019290925260038601548083166060830152600160801b900490911660808201526000600f85900b61516a5781516001600160801b0316615162576040805162461bcd60e51b815260206004820152600260248201526104e560f41b604482015290519081900360640190fd5b508051615179565b815161517690866136f0565b90505b600061519d8360200151860384600001516001600160801b0316600160801b613582565b905060006151c38460400151860385600001516001600160801b0316600160801b613582565b905086600f0b6000146151ea5787546001600160801b0319166001600160801b0384161788555b60018801869055600288018590556001600160801b03821615158061521857506000816001600160801b0316115b15615256576003880180546001600160801b031981166001600160801b039182168501821617808216600160801b9182900483168501909216021790555b5050505050505050565b600290810b810b6000908152602092909252604082208281556001810183905590810182905560030155565b806001600160a01b03811681146131c657600080fd5b6040805160e081018252600080825260208201819052918101829052606081018290526080810182905260a0810182905260c08101919091529056fea164736f6c6343000706000aa164736f6c6343000706000a",
  "libraries": {
    "Oracle": "0x509a04665062c08f74928c3d2C3039628677c61B",
    "TickMath": "0x9abB90cB144d5F83EB9936c592E2526F1DCEBA04"
  },
  "devdoc": {
    "kind": "dev",
    "methods": {
      "createPool(address,address,uint24)": {
        "details": "tokenA and tokenB may be passed in either order: token0/token1 or token1/token0. tickSpacing is retrieved from the fee. The call will revert if the pool already exists, the fee is invalid, or the token arguments are invalid.",
        "params": {
          "fee": "The desired fee for the pool",
          "tokenA": "One of the two tokens in the desired pool",
          "tokenB": "The other of the two tokens in the desired pool"
        },
        "returns": {
          "pool": "The address of the newly created pool"
        }
      },
      "enableFeeAmount(uint24,int24)": {
        "details": "Fee amounts may never be removed once enabled",
        "params": {
          "fee": "The fee amount to enable, denominated in hundredths of a bip (i.e. 1e-6)",
          "tickSpacing": "The spacing between ticks to be enforced for all pools created with the given fee amount"
        }
      },
      "setOwner(address)": {
        "details": "Must be called by the current owner",
        "params": {
          "_owner": "The new owner of the factory"
        }
      }
    },
    "stateVariables": {
      "feeAmountTickSpacing": {
        "details": "A fee amount can never be removed, so this value should be hard coded or cached in the calling context",
        "params": {
          "fee": "The enabled fee, denominated in hundredths of a bip. Returns 0 in case of unenabled fee"
        },
        "return": "The tick spacing"
      },
      "getPool": {
        "details": "tokenA and tokenB may be passed in either token0/token1 or token1/token0 order",
        "params": {
          "fee": "The fee collected upon every swap in the pool, denominated in hundredths of a bip",
          "tokenA": "The contract address of either token0 or token1",
          "tokenB": "The contract address of the other token"
        },
        "return": "pool The pool address"
      },
      "owner": {
        "details": "Can be changed by the current owner via setOwner",
        "return": "The address of the factory owner"
      }
    },
    "title": "Canonical Blasterswap V3 factory",
    "version": 1
  },
  "userdoc": {
    "events": {
      "FeeAmountEnabled(uint24,int24)": {
        "notice": "Emitted when a new fee amount is enabled for pool creation via the factory"
      },
      "OwnerChanged(address,address)": {
        "notice": "Emitted when the owner of the factory is changed"
      },
      "PoolCreated(address,address,uint24,int24,address)": {
        "notice": "Emitted when a pool is created"
      }
    },
    "kind": "user",
    "methods": {
      "admin()": {
        "notice": "Returns points admin"
      },
      "createPool(address,address,uint24)": {
        "notice": "Creates a pool for the given two tokens and fee"
      },
      "enableFeeAmount(uint24,int24)": {
        "notice": "Enables a fee amount with the given tickSpacing"
      },
      "feeAmountTickSpacing(uint24)": {
        "notice": "Returns the tick spacing for a given fee amount, if enabled, or 0 if not enabled"
      },
      "getPool(address,address,uint24)": {
        "notice": "Returns the pool address for a given pair of tokens and a fee, or address 0 if it does not exist"
      },
      "owner()": {
        "notice": "Returns the current owner of the factory"
      },
      "parameters()": {
        "notice": "Get the parameters to be used in constructing the pool, set transiently during pool creation."
      },
      "setOwner(address)": {
        "notice": "Updates the owner of the factory"
      }
    },
    "notice": "Deploys Blasterswap V3 pools and manages ownership and control over pool protocol fees",
    "version": 1
  },
  "storageLayout": {
    "storage": [
      {
        "astId": 2972,
        "contract": "contracts/BlasterswapV3Factory.sol:BlasterswapV3Factory",
        "label": "parameters",
        "offset": 0,
        "slot": "0",
        "type": "t_struct(Parameters)2968_storage"
      },
      {
        "astId": 15,
        "contract": "contracts/BlasterswapV3Factory.sol:BlasterswapV3Factory",
        "label": "owner",
        "offset": 0,
        "slot": "3",
        "type": "t_address"
      },
      {
        "astId": 18,
        "contract": "contracts/BlasterswapV3Factory.sol:BlasterswapV3Factory",
        "label": "admin",
        "offset": 0,
        "slot": "4",
        "type": "t_address"
      },
      {
        "astId": 24,
        "contract": "contracts/BlasterswapV3Factory.sol:BlasterswapV3Factory",
        "label": "feeAmountTickSpacing",
        "offset": 0,
        "slot": "5",
        "type": "t_mapping(t_uint24,t_int24)"
      },
      {
        "astId": 34,
        "contract": "contracts/BlasterswapV3Factory.sol:BlasterswapV3Factory",
        "label": "getPool",
        "offset": 0,
        "slot": "6",
        "type": "t_mapping(t_address,t_mapping(t_address,t_mapping(t_uint24,t_address)))"
      }
    ],
    "types": {
      "t_address": {
        "encoding": "inplace",
        "label": "address",
        "numberOfBytes": "20"
      },
      "t_int24": {
        "encoding": "inplace",
        "label": "int24",
        "numberOfBytes": "3"
      },
      "t_mapping(t_address,t_mapping(t_address,t_mapping(t_uint24,t_address)))": {
        "encoding": "mapping",
        "key": "t_address",
        "label": "mapping(address => mapping(address => mapping(uint24 => address)))",
        "numberOfBytes": "32",
        "value": "t_mapping(t_address,t_mapping(t_uint24,t_address))"
      },
      "t_mapping(t_address,t_mapping(t_uint24,t_address))": {
        "encoding": "mapping",
        "key": "t_address",
        "label": "mapping(address => mapping(uint24 => address))",
        "numberOfBytes": "32",
        "value": "t_mapping(t_uint24,t_address)"
      },
      "t_mapping(t_uint24,t_address)": {
        "encoding": "mapping",
        "key": "t_uint24",
        "label": "mapping(uint24 => address)",
        "numberOfBytes": "32",
        "value": "t_address"
      },
      "t_mapping(t_uint24,t_int24)": {
        "encoding": "mapping",
        "key": "t_uint24",
        "label": "mapping(uint24 => int24)",
        "numberOfBytes": "32",
        "value": "t_int24"
      },
      "t_struct(Parameters)2968_storage": {
        "encoding": "inplace",
        "label": "struct BlasterswapV3PoolDeployer.Parameters",
        "members": [
          {
            "astId": 2959,
            "contract": "contracts/BlasterswapV3Factory.sol:BlasterswapV3Factory",
            "label": "factory",
            "offset": 0,
            "slot": "0",
            "type": "t_address"
          },
          {
            "astId": 2961,
            "contract": "contracts/BlasterswapV3Factory.sol:BlasterswapV3Factory",
            "label": "token0",
            "offset": 0,
            "slot": "1",
            "type": "t_address"
          },
          {
            "astId": 2963,
            "contract": "contracts/BlasterswapV3Factory.sol:BlasterswapV3Factory",
            "label": "token1",
            "offset": 0,
            "slot": "2",
            "type": "t_address"
          },
          {
            "astId": 2965,
            "contract": "contracts/BlasterswapV3Factory.sol:BlasterswapV3Factory",
            "label": "fee",
            "offset": 20,
            "slot": "2",
            "type": "t_uint24"
          },
          {
            "astId": 2967,
            "contract": "contracts/BlasterswapV3Factory.sol:BlasterswapV3Factory",
            "label": "tickSpacing",
            "offset": 23,
            "slot": "2",
            "type": "t_int24"
          }
        ],
        "numberOfBytes": "96"
      },
      "t_uint24": {
        "encoding": "inplace",
        "label": "uint24",
        "numberOfBytes": "3"
      }
    }
  }
}